{
  "contractName": "Voting",
  "abi": [
    {
      "inputs": [],
      "stateMutability": "nonpayable",
      "type": "constructor"
    },
    {
      "anonymous": false,
      "inputs": [
        {
          "indexed": true,
          "internalType": "address",
          "name": "previousOwner",
          "type": "address"
        },
        {
          "indexed": true,
          "internalType": "address",
          "name": "newOwner",
          "type": "address"
        }
      ],
      "name": "OwnershipTransferred",
      "type": "event"
    },
    {
      "anonymous": false,
      "inputs": [
        {
          "indexed": false,
          "internalType": "uint8",
          "name": "proposalId",
          "type": "uint8"
        }
      ],
      "name": "ProposalRegistered",
      "type": "event"
    },
    {
      "anonymous": false,
      "inputs": [],
      "name": "Tie",
      "type": "event"
    },
    {
      "anonymous": false,
      "inputs": [
        {
          "indexed": false,
          "internalType": "address",
          "name": "voterAddress",
          "type": "address"
        },
        {
          "indexed": false,
          "internalType": "uint8",
          "name": "proposalId",
          "type": "uint8"
        }
      ],
      "name": "Voted",
      "type": "event"
    },
    {
      "anonymous": false,
      "inputs": [
        {
          "indexed": false,
          "internalType": "address",
          "name": "voterAddress",
          "type": "address"
        }
      ],
      "name": "VoterRegistered",
      "type": "event"
    },
    {
      "anonymous": false,
      "inputs": [
        {
          "indexed": false,
          "internalType": "enum Voting.WorkflowStatus",
          "name": "previousStatus",
          "type": "uint8"
        },
        {
          "indexed": false,
          "internalType": "enum Voting.WorkflowStatus",
          "name": "nextStatus",
          "type": "uint8"
        }
      ],
      "name": "WorkflowStatusChange",
      "type": "event"
    },
    {
      "inputs": [],
      "name": "owner",
      "outputs": [
        {
          "internalType": "address",
          "name": "",
          "type": "address"
        }
      ],
      "stateMutability": "view",
      "type": "function",
      "constant": true
    },
    {
      "inputs": [],
      "name": "renounceOwnership",
      "outputs": [],
      "stateMutability": "nonpayable",
      "type": "function"
    },
    {
      "inputs": [
        {
          "internalType": "address",
          "name": "newOwner",
          "type": "address"
        }
      ],
      "name": "transferOwnership",
      "outputs": [],
      "stateMutability": "nonpayable",
      "type": "function"
    },
    {
      "stateMutability": "payable",
      "type": "receive",
      "payable": true
    },
    {
      "inputs": [],
      "name": "nextPhase",
      "outputs": [],
      "stateMutability": "nonpayable",
      "type": "function"
    },
    {
      "inputs": [
        {
          "internalType": "address",
          "name": "_addr",
          "type": "address"
        }
      ],
      "name": "registerVoter",
      "outputs": [],
      "stateMutability": "nonpayable",
      "type": "function"
    },
    {
      "inputs": [
        {
          "internalType": "address",
          "name": "_addr",
          "type": "address"
        }
      ],
      "name": "getVoter",
      "outputs": [
        {
          "components": [
            {
              "internalType": "bool",
              "name": "isRegistered",
              "type": "bool"
            },
            {
              "internalType": "uint8",
              "name": "votedProposalId",
              "type": "uint8"
            },
            {
              "internalType": "uint32",
              "name": "votesNb",
              "type": "uint32"
            },
            {
              "internalType": "uint256",
              "name": "bribe",
              "type": "uint256"
            }
          ],
          "internalType": "struct Voting.Voter",
          "name": "",
          "type": "tuple"
        }
      ],
      "stateMutability": "view",
      "type": "function",
      "constant": true
    },
    {
      "inputs": [
        {
          "internalType": "string",
          "name": "_description",
          "type": "string"
        }
      ],
      "name": "registerProposal",
      "outputs": [],
      "stateMutability": "nonpayable",
      "type": "function"
    },
    {
      "inputs": [
        {
          "internalType": "uint256",
          "name": "_value",
          "type": "uint256"
        }
      ],
      "name": "defineBribe",
      "outputs": [],
      "stateMutability": "nonpayable",
      "type": "function"
    },
    {
      "inputs": [],
      "name": "getProposals",
      "outputs": [
        {
          "components": [
            {
              "internalType": "string",
              "name": "description",
              "type": "string"
            },
            {
              "internalType": "uint32",
              "name": "voteCount",
              "type": "uint32"
            }
          ],
          "internalType": "struct Voting.Proposal[]",
          "name": "",
          "type": "tuple[]"
        }
      ],
      "stateMutability": "view",
      "type": "function",
      "constant": true
    },
    {
      "inputs": [
        {
          "internalType": "uint8",
          "name": "_id",
          "type": "uint8"
        }
      ],
      "name": "vote",
      "outputs": [],
      "stateMutability": "nonpayable",
      "type": "function"
    },
    {
      "inputs": [
        {
          "internalType": "address",
          "name": "_addr",
          "type": "address"
        },
        {
          "internalType": "uint8",
          "name": "_id",
          "type": "uint8"
        }
      ],
      "name": "bribe",
      "outputs": [],
      "stateMutability": "payable",
      "type": "function",
      "payable": true
    },
    {
      "inputs": [],
      "name": "getStatus",
      "outputs": [
        {
          "internalType": "string",
          "name": "",
          "type": "string"
        }
      ],
      "stateMutability": "view",
      "type": "function",
      "constant": true
    },
    {
      "inputs": [
        {
          "internalType": "address",
          "name": "_addr",
          "type": "address"
        }
      ],
      "name": "getVote",
      "outputs": [
        {
          "internalType": "uint8",
          "name": "",
          "type": "uint8"
        }
      ],
      "stateMutability": "view",
      "type": "function",
      "constant": true
    },
    {
      "inputs": [],
      "name": "getWinner",
      "outputs": [
        {
          "internalType": "uint8",
          "name": "",
          "type": "uint8"
        }
      ],
      "stateMutability": "view",
      "type": "function",
      "constant": true
    }
  ],
  "bytecode": "0x60806040523480156200001157600080fd5b5062000032620000266200008260201b60201c565b6200008a60201b60201c565b60008060146101000a81548160ff021916908360058111156200005a57620000596200014e565b5b021790555060016003806101000a81548161ffff021916908361ffff1602179055506200017d565b600033905090565b60008060009054906101000a900473ffffffffffffffffffffffffffffffffffffffff169050816000806101000a81548173ffffffffffffffffffffffffffffffffffffffff021916908373ffffffffffffffffffffffffffffffffffffffff1602179055508173ffffffffffffffffffffffffffffffffffffffff168173ffffffffffffffffffffffffffffffffffffffff167f8be0079c531659141344cd1fd0a4f28419497f9722a3daafe3b4186f6b6457e060405160405180910390a35050565b7f4e487b7100000000000000000000000000000000000000000000000000000000600052602160045260246000fd5b61393a806200018d6000396000f3fe6080604052600436106100e15760003560e01c80638d337b811161007f578063b3f98adc11610059578063b3f98adc1461027f578063c7322aac146102a8578063d4f50f98146102c4578063f2fde38b14610301576100e8565b80638d337b81146101ec5780638da5cb5b146102295780638e7ea5b214610254576100e8565b80633eadb6db116100bb5780633eadb6db146101685780634e69d5601461017f57806362564c48146101aa578063715018a6146101d5576100e8565b806311660552146100ed5780632f95355b1461011657806338db6dd31461013f576100e8565b366100e857005b600080fd5b3480156100f957600080fd5b50610114600480360381019061010f919061285f565b61032a565b005b34801561012257600080fd5b5061013d600480360381019061013891906128f1565b61047b565b005b34801561014b57600080fd5b506101666004803603810190610161919061299c565b610728565b005b34801561017457600080fd5b5061017d610965565b005b34801561018b57600080fd5b50610194610ec1565b6040516101a19190612a62565b60405180910390f35b3480156101b657600080fd5b506101bf61119b565b6040516101cc9190612bec565b60405180910390f35b3480156101e157600080fd5b506101ea6113b9565b005b3480156101f857600080fd5b50610213600480360381019061020e919061299c565b6113cd565b6040516102209190612c2a565b60405180910390f35b34801561023557600080fd5b5061023e611562565b60405161024b9190612c54565b60405180910390f35b34801561026057600080fd5b5061026961158b565b6040516102769190612c2a565b60405180910390f35b34801561028b57600080fd5b506102a660048036038101906102a19190612c9b565b61161a565b005b6102c260048036038101906102bd9190612cc8565b611996565b005b3480156102d057600080fd5b506102eb60048036038101906102e6919061299c565b611ecf565b6040516102f89190612d96565b60405180910390f35b34801561030d57600080fd5b506103286004803603810190610323919061299c565b612006565b005b600180600581111561033f5761033e612db1565b5b600060149054906101000a900460ff16600581111561036157610360612db1565b5b146103a1576040517f08c379a000000000000000000000000000000000000000000000000000000000815260040161039890612e52565b60405180910390fd5b600160003373ffffffffffffffffffffffffffffffffffffffff1673ffffffffffffffffffffffffffffffffffffffff16815260200190815260200160002060000160009054906101000a900460ff16610430576040517f08c379a000000000000000000000000000000000000000000000000000000000815260040161042790612ee4565b60405180910390fd5b81600160003373ffffffffffffffffffffffffffffffffffffffff1673ffffffffffffffffffffffffffffffffffffffff168152602001908152602001600020600101819055505050565b60018060058111156104905761048f612db1565b5b600060149054906101000a900460ff1660058111156104b2576104b1612db1565b5b146104f2576040517f08c379a00000000000000000000000000000000000000000000000000000000081526004016104e990612e52565b60405180910390fd5b600160003373ffffffffffffffffffffffffffffffffffffffff1673ffffffffffffffffffffffffffffffffffffffff16815260200190815260200160002060000160009054906101000a900460ff16610581576040517f08c379a000000000000000000000000000000000000000000000000000000000815260040161057890612ee4565b60405180910390fd5b600083839050036105c7576040517f08c379a00000000000000000000000000000000000000000000000000000000081526004016105be90612f76565b60405180910390fd5b60006002805490509050606460ff168160ff161061061a576040517f08c379a000000000000000000000000000000000000000000000000000000000815260040161061190612fe2565b60405180910390fd5b6002604051806040016040528086868080601f016020809104026020016040519081016040528093929190818152602001838380828437600081840152601f19601f820116905080830192505050505050508152602001600063ffffffff16815250908060018154018082558091505060019003906000526020600020906002020160009091909190915060008201518160000190805190602001906106c1929190612698565b5060208201518160010160006101000a81548163ffffffff021916908363ffffffff16021790555050507f97f460959e4f26faed2e7db699104bcada89a6013fbadbb8067ca93d9326cbc48160405161071a9190612c2a565b60405180910390a150505050565b610730612089565b600080600581111561074557610744612db1565b5b600060149054906101000a900460ff16600581111561076757610766612db1565b5b146107a7576040517f08c379a000000000000000000000000000000000000000000000000000000000815260040161079e90612e52565b60405180910390fd5b600073ffffffffffffffffffffffffffffffffffffffff168273ffffffffffffffffffffffffffffffffffffffff1603610816576040517f08c379a000000000000000000000000000000000000000000000000000000000815260040161080d90613074565b60405180910390fd5b6040518060800160405280600115158152602001600060ff168152602001600063ffffffff1681526020016000815250600160008473ffffffffffffffffffffffffffffffffffffffff1673ffffffffffffffffffffffffffffffffffffffff16815260200190815260200160002060008201518160000160006101000a81548160ff02191690831515021790555060208201518160000160016101000a81548160ff021916908360ff16021790555060408201518160000160026101000a81548163ffffffff021916908363ffffffff16021790555060608201518160010155905050600360019054906101000a900460ff1661092a576001600360016101000a81548160ff0219169083151502179055505b7fb6be2187d059cc2a55fe29e0e503b566e1e0f8c8780096e185429350acffd3dd826040516109599190612c54565b60405180910390a15050565b61096d612089565b6005808111156109805761097f612db1565b5b600060149054906101000a900460ff1660058111156109a2576109a1612db1565b5b036109e2576040517f08c379a00000000000000000000000000000000000000000000000000000000081526004016109d990613106565b60405180910390fd5b600060058111156109f6576109f5612db1565b5b600060149054906101000a900460ff166005811115610a1857610a17612db1565b5b03610ae457600360019054906101000a900460ff16610a6c576040517f08c379a0000000000000000000000000000000000000000000000000000000008152600401610a6390613172565b60405180910390fd5b6001600060146101000a81548160ff02191690836005811115610a9257610a91612db1565b5b02179055507f0a97a4ee45751e2abf3e4fc8946939630b11b371ea8ae39ccdc3056e98f5cc3f60008060149054906101000a900460ff16604051610ad79291906131da565b60405180910390a1610ebf565b60016005811115610af857610af7612db1565b5b600060149054906101000a900460ff166005811115610b1a57610b19612db1565b5b03610be057600060028054905003610b67576040517f08c379a0000000000000000000000000000000000000000000000000000000008152600401610b5e9061324f565b60405180910390fd5b6002600060146101000a81548160ff02191690836005811115610b8d57610b8c612db1565b5b02179055507f0a97a4ee45751e2abf3e4fc8946939630b11b371ea8ae39ccdc3056e98f5cc3f6001600060149054906101000a900460ff16604051610bd39291906131da565b60405180910390a1610ebe565b60026005811115610bf457610bf3612db1565b5b600060149054906101000a900460ff166005811115610c1657610c15612db1565b5b03610c94576003600060146101000a81548160ff02191690836005811115610c4157610c40612db1565b5b02179055507f0a97a4ee45751e2abf3e4fc8946939630b11b371ea8ae39ccdc3056e98f5cc3f6002600060149054906101000a900460ff16604051610c879291906131da565b60405180910390a1610ebd565b60036005811115610ca857610ca7612db1565b5b600060149054906101000a900460ff166005811115610cca57610cc9612db1565b5b03610d48576004600060146101000a81548160ff02191690836005811115610cf557610cf4612db1565b5b02179055507f0a97a4ee45751e2abf3e4fc8946939630b11b371ea8ae39ccdc3056e98f5cc3f6003600060149054906101000a900460ff16604051610d3b9291906131da565b60405180910390a1610ebc565b60046005811115610d5c57610d5b612db1565b5b600060149054906101000a900460ff166005811115610d7e57610d7d612db1565b5b03610ebb57610d8b612107565b600360029054906101000a900460ff1615610e19576005600060146101000a81548160ff02191690836005811115610dc657610dc5612db1565b5b02179055507f0a97a4ee45751e2abf3e4fc8946939630b11b371ea8ae39ccdc3056e98f5cc3f6004600060149054906101000a900460ff16604051610e0c9291906131da565b60405180910390a1610eba565b6003600060146101000a81548160ff02191690836005811115610e3f57610e3e612db1565b5b02179055507f0a97a4ee45751e2abf3e4fc8946939630b11b371ea8ae39ccdc3056e98f5cc3f6004600060149054906101000a900460ff16604051610e859291906131da565b60405180910390a17f03d3457fc00afd1fa10475c1053b47c3bc256b7633702671cd8c93af3609abb760405160405180910390a15b5b5b5b5b5b565b60608060006005811115610ed857610ed7612db1565b5b600060149054906101000a900460ff166005811115610efa57610ef9612db1565b5b03610f3c576040518060400160405280601181526020017f5265676973746572696e67566f746572730000000000000000000000000000008152509050611194565b60016005811115610f5057610f4f612db1565b5b600060149054906101000a900460ff166005811115610f7257610f71612db1565b5b03610fb4576040518060400160405280601c81526020017f50726f706f73616c73526567697374726174696f6e53746172746564000000008152509050611193565b60026005811115610fc857610fc7612db1565b5b600060149054906101000a900460ff166005811115610fea57610fe9612db1565b5b0361102c576040518060400160405280601a81526020017f50726f706f73616c73526567697374726174696f6e456e6465640000000000008152509050611192565b600360058111156110405761103f612db1565b5b600060149054906101000a900460ff16600581111561106257611061612db1565b5b036110a4576040518060400160405280601481526020017f566f74696e6753657373696f6e537461727465640000000000000000000000008152509050611191565b600460058111156110b8576110b7612db1565b5b600060149054906101000a900460ff1660058111156110da576110d9612db1565b5b0361111c576040518060400160405280601281526020017f566f74696e6753657373696f6e456e64656400000000000000000000000000008152509050611190565b60058081111561112f5761112e612db1565b5b600060149054906101000a900460ff16600581111561115157611150612db1565b5b0361118f576040518060400160405280600c81526020017f566f74657354616c6c696564000000000000000000000000000000000000000081525090505b5b5b5b5b5b8091505090565b606060038060058111156111b2576111b1612db1565b5b600060149054906101000a900460ff1660058111156111d4576111d3612db1565b5b14611214576040517f08c379a000000000000000000000000000000000000000000000000000000000815260040161120b90612e52565b60405180910390fd5b600160003373ffffffffffffffffffffffffffffffffffffffff1673ffffffffffffffffffffffffffffffffffffffff16815260200190815260200160002060000160009054906101000a900460ff166112a3576040517f08c379a000000000000000000000000000000000000000000000000000000000815260040161129a90612ee4565b60405180910390fd5b6002805480602002602001604051908101604052809291908181526020016000905b828210156113af57838290600052602060002090600202016040518060400160405290816000820180546112f89061329e565b80601f01602080910402602001604051908101604052809291908181526020018280546113249061329e565b80156113715780601f1061134657610100808354040283529160200191611371565b820191906000526020600020905b81548152906001019060200180831161135457829003601f168201915b505050505081526020016001820160009054906101000a900463ffffffff1663ffffffff1663ffffffff1681525050815260200190600101906112c5565b5050505091505090565b6113c1612089565b6113cb60006125cc565b565b6000600160003373ffffffffffffffffffffffffffffffffffffffff1673ffffffffffffffffffffffffffffffffffffffff16815260200190815260200160002060000160009054906101000a900460ff1661145e576040517f08c379a000000000000000000000000000000000000000000000000000000000815260040161145590612ee4565b60405180910390fd5b60038054906101000a900461ffff1661ffff16600160008473ffffffffffffffffffffffffffffffffffffffff1673ffffffffffffffffffffffffffffffffffffffff16815260200190815260200160002060000160029054906101000a900463ffffffff1663ffffffff16101561150b576040517f08c379a00000000000000000000000000000000000000000000000000000000081526004016115029061331b565b60405180910390fd5b600160008373ffffffffffffffffffffffffffffffffffffffff1673ffffffffffffffffffffffffffffffffffffffff16815260200190815260200160002060000160019054906101000a900460ff169050919050565b60008060009054906101000a900473ffffffffffffffffffffffffffffffffffffffff16905090565b600060058060058111156115a2576115a1612db1565b5b600060149054906101000a900460ff1660058111156115c4576115c3612db1565b5b14611604576040517f08c379a00000000000000000000000000000000000000000000000000000000081526004016115fb90612e52565b60405180910390fd5b600360009054906101000a900460ff1691505090565b600380600581111561162f5761162e612db1565b5b600060149054906101000a900460ff16600581111561165157611650612db1565b5b14611691576040517f08c379a000000000000000000000000000000000000000000000000000000000815260040161168890612e52565b60405180910390fd5b600160003373ffffffffffffffffffffffffffffffffffffffff1673ffffffffffffffffffffffffffffffffffffffff16815260200190815260200160002060000160009054906101000a900460ff16611720576040517f08c379a000000000000000000000000000000000000000000000000000000000815260040161171790612ee4565b60405180910390fd5b60038054906101000a900461ffff1661ffff16600160003373ffffffffffffffffffffffffffffffffffffffff1673ffffffffffffffffffffffffffffffffffffffff16815260200190815260200160002060000160029054906101000a900463ffffffff1663ffffffff16106117cc576040517f08c379a00000000000000000000000000000000000000000000000000000000081526004016117c390613387565b60405180910390fd5b6002805490508260ff1610611816576040517f08c379a000000000000000000000000000000000000000000000000000000000815260040161180d90613419565b60405180910390fd5b60028260ff168154811061182d5761182c613439565b5b9060005260206000209060020201600101600081819054906101000a900463ffffffff168092919061185e90613497565b91906101000a81548163ffffffff021916908363ffffffff16021790555050600160003373ffffffffffffffffffffffffffffffffffffffff1673ffffffffffffffffffffffffffffffffffffffff168152602001908152602001600020600001600281819054906101000a900463ffffffff16809291906118df90613497565b91906101000a81548163ffffffff021916908363ffffffff1602179055505081600160003373ffffffffffffffffffffffffffffffffffffffff1673ffffffffffffffffffffffffffffffffffffffff16815260200190815260200160002060000160016101000a81548160ff021916908360ff1602179055507f14075e33dffdc00c1fcaf75d0f86d667170be57fb566b12b41b499e5fa53b125338360405161198a9291906134c3565b60405180910390a15050565b60038060058111156119ab576119aa612db1565b5b600060149054906101000a900460ff1660058111156119cd576119cc612db1565b5b14611a0d576040517f08c379a0000000000000000000000000000000000000000000000000000000008152600401611a0490612e52565b60405180910390fd5b600160003373ffffffffffffffffffffffffffffffffffffffff1673ffffffffffffffffffffffffffffffffffffffff16815260200190815260200160002060000160009054906101000a900460ff16611a9c576040517f08c379a0000000000000000000000000000000000000000000000000000000008152600401611a9390612ee4565b60405180910390fd5b6000600160008573ffffffffffffffffffffffffffffffffffffffff1673ffffffffffffffffffffffffffffffffffffffff1681526020019081526020016000206001015403611b21576040517f08c379a0000000000000000000000000000000000000000000000000000000008152600401611b1890613538565b60405180910390fd5b60038054906101000a900461ffff1661ffff16600160008573ffffffffffffffffffffffffffffffffffffffff1673ffffffffffffffffffffffffffffffffffffffff16815260200190815260200160002060000160029054906101000a900463ffffffff1663ffffffff1610611bcd576040517f08c379a0000000000000000000000000000000000000000000000000000000008152600401611bc4906135ca565b60405180910390fd5b34600160008573ffffffffffffffffffffffffffffffffffffffff1673ffffffffffffffffffffffffffffffffffffffff168152602001908152602001600020600101541115611c52576040517f08c379a0000000000000000000000000000000000000000000000000000000008152600401611c4990613636565b60405180910390fd5b6002805490508260ff1610611c9c576040517f08c379a0000000000000000000000000000000000000000000000000000000008152600401611c9390613419565b60405180910390fd5b60028260ff1681548110611cb357611cb2613439565b5b9060005260206000209060020201600101600081819054906101000a900463ffffffff1680929190611ce490613497565b91906101000a81548163ffffffff021916908363ffffffff16021790555050600160008473ffffffffffffffffffffffffffffffffffffffff1673ffffffffffffffffffffffffffffffffffffffff168152602001908152602001600020600001600281819054906101000a900463ffffffff1680929190611d6590613497565b91906101000a81548163ffffffff021916908363ffffffff1602179055505081600160008573ffffffffffffffffffffffffffffffffffffffff1673ffffffffffffffffffffffffffffffffffffffff16815260200190815260200160002060000160016101000a81548160ff021916908360ff16021790555060008373ffffffffffffffffffffffffffffffffffffffff16346161a890604051611e0990613687565b600060405180830381858888f193505050503d8060008114611e47576040519150601f19603f3d011682016040523d82523d6000602084013e611e4c565b606091505b5050905080611e90576040517f08c379a0000000000000000000000000000000000000000000000000000000008152600401611e87906136e8565b60405180910390fd5b7f14075e33dffdc00c1fcaf75d0f86d667170be57fb566b12b41b499e5fa53b1258484604051611ec19291906134c3565b60405180910390a150505050565b611ed761271e565b60006005811115611eeb57611eea612db1565b5b600060149054906101000a900460ff166005811115611f0d57611f0c612db1565b5b03611f4d576040517f08c379a0000000000000000000000000000000000000000000000000000000008152600401611f4490612e52565b60405180910390fd5b600160008373ffffffffffffffffffffffffffffffffffffffff1673ffffffffffffffffffffffffffffffffffffffff1681526020019081526020016000206040518060800160405290816000820160009054906101000a900460ff161515151581526020016000820160019054906101000a900460ff1660ff1660ff1681526020016000820160029054906101000a900463ffffffff1663ffffffff1663ffffffff1681526020016001820154815250509050919050565b61200e612089565b600073ffffffffffffffffffffffffffffffffffffffff168173ffffffffffffffffffffffffffffffffffffffff160361207d576040517f08c379a00000000000000000000000000000000000000000000000000000000081526004016120749061377a565b60405180910390fd5b612086816125cc565b50565b612091612690565b73ffffffffffffffffffffffffffffffffffffffff166120af611562565b73ffffffffffffffffffffffffffffffffffffffff1614612105576040517f08c379a00000000000000000000000000000000000000000000000000000000081526004016120fc906137e6565b60405180910390fd5b565b600080612112612751565b61211a612774565b600080600090505b6002805490508160ff16101561239f578563ffffffff1660028260ff16815481106121505761214f613439565b5b906000526020600020906002020160010160009054906101000a900463ffffffff1663ffffffff1610612346578563ffffffff1660028260ff168154811061219b5761219a613439565b5b906000526020600020906002020160010160009054906101000a900463ffffffff1663ffffffff1611156121ce57600091505b80848360ff16606481106121e5576121e4613439565b5b602002019060ff16908160ff168152505060028160ff168154811061220d5761220c613439565b5b90600052602060002090600202016040518060400160405290816000820180546122369061329e565b80601f01602080910402602001604051908101604052809291908181526020018280546122629061329e565b80156122af5780601f10612284576101008083540402835291602001916122af565b820191906000526020600020905b81548152906001019060200180831161229257829003601f168201915b505050505081526020016001820160009054906101000a900463ffffffff1663ffffffff1663ffffffff1681525050838360ff16606481106122f4576122f3613439565b5b6020020181905250818061230790613806565b92505060028160ff168154811061232157612320613439565b5b906000526020600020906002020160010160009054906101000a900463ffffffff1695505b60028160ff168154811061235d5761235c613439565b5b906000526020600020906002020160010160009054906101000a900463ffffffff168561238a919061382f565b9450808061239790613806565b915050612122565b5083600060156101000a81548163ffffffff021916908363ffffffff16021790555060018160ff160361241f57826000606481106123e0576123df613439565b5b6020020151600360006101000a81548160ff021916908360ff1602179055506001600360026101000a81548160ff0219169083151502179055506125c5565b5b60006002805490501461248457600280548061243f5761243e613869565b5b60019003818190600052602060002090600202016000808201600061246491906127a2565b6001820160006101000a81549063ffffffff021916905550509055612420565b60005b8160ff16600280549050146125895760028382806124a490613806565b935060ff16606481106124ba576124b9613439565b5b602002015190806001815401808255809150506001900390600052602060002090600202016000909190919091506000820151816000019080519060200190612504929190612698565b5060208201518160010160006101000a81548163ffffffff021916908363ffffffff16021790555050506000600260016002805490506125449190613898565b8154811061255557612554613439565b5b906000526020600020906002020160010160006101000a81548163ffffffff021916908363ffffffff160217905550612487565b60038081819054906101000a900461ffff16809291906125a8906138da565b91906101000a81548161ffff021916908361ffff16021790555050505b5050505050565b60008060009054906101000a900473ffffffffffffffffffffffffffffffffffffffff169050816000806101000a81548173ffffffffffffffffffffffffffffffffffffffff021916908373ffffffffffffffffffffffffffffffffffffffff1602179055508173ffffffffffffffffffffffffffffffffffffffff168173ffffffffffffffffffffffffffffffffffffffff167f8be0079c531659141344cd1fd0a4f28419497f9722a3daafe3b4186f6b6457e060405160405180910390a35050565b600033905090565b8280546126a49061329e565b90600052602060002090601f0160209004810192826126c6576000855561270d565b82601f106126df57805160ff191683800117855561270d565b8280016001018555821561270d579182015b8281111561270c5782518255916020019190600101906126f1565b5b50905061271a91906127e2565b5090565b6040518060800160405280600015158152602001600060ff168152602001600063ffffffff168152602001600081525090565b60405180610c800160405280606490602082028036833780820191505090505090565b60405180610c8001604052806064905b61278c6127ff565b8152602001906001900390816127845790505090565b5080546127ae9061329e565b6000825580601f106127c057506127df565b601f0160209004906000526020600020908101906127de91906127e2565b5b50565b5b808211156127fb5760008160009055506001016127e3565b5090565b604051806040016040528060608152602001600063ffffffff1681525090565b600080fd5b600080fd5b6000819050919050565b61283c81612829565b811461284757600080fd5b50565b60008135905061285981612833565b92915050565b6000602082840312156128755761287461281f565b5b60006128838482850161284a565b91505092915050565b600080fd5b600080fd5b600080fd5b60008083601f8401126128b1576128b061288c565b5b8235905067ffffffffffffffff8111156128ce576128cd612891565b5b6020830191508360018202830111156128ea576128e9612896565b5b9250929050565b600080602083850312156129085761290761281f565b5b600083013567ffffffffffffffff81111561292657612925612824565b5b6129328582860161289b565b92509250509250929050565b600073ffffffffffffffffffffffffffffffffffffffff82169050919050565b60006129698261293e565b9050919050565b6129798161295e565b811461298457600080fd5b50565b60008135905061299681612970565b92915050565b6000602082840312156129b2576129b161281f565b5b60006129c084828501612987565b91505092915050565b600081519050919050565b600082825260208201905092915050565b60005b83811015612a035780820151818401526020810190506129e8565b83811115612a12576000848401525b50505050565b6000601f19601f8301169050919050565b6000612a34826129c9565b612a3e81856129d4565b9350612a4e8185602086016129e5565b612a5781612a18565b840191505092915050565b60006020820190508181036000830152612a7c8184612a29565b905092915050565b600081519050919050565b600082825260208201905092915050565b6000819050602082019050919050565b600082825260208201905092915050565b6000612acc826129c9565b612ad68185612ab0565b9350612ae68185602086016129e5565b612aef81612a18565b840191505092915050565b600063ffffffff82169050919050565b612b1381612afa565b82525050565b60006040830160008301518482036000860152612b368282612ac1565b9150506020830151612b4b6020860182612b0a565b508091505092915050565b6000612b628383612b19565b905092915050565b6000602082019050919050565b6000612b8282612a84565b612b8c8185612a8f565b935083602082028501612b9e85612aa0565b8060005b85811015612bda5784840389528151612bbb8582612b56565b9450612bc683612b6a565b925060208a01995050600181019050612ba2565b50829750879550505050505092915050565b60006020820190508181036000830152612c068184612b77565b905092915050565b600060ff82169050919050565b612c2481612c0e565b82525050565b6000602082019050612c3f6000830184612c1b565b92915050565b612c4e8161295e565b82525050565b6000602082019050612c696000830184612c45565b92915050565b612c7881612c0e565b8114612c8357600080fd5b50565b600081359050612c9581612c6f565b92915050565b600060208284031215612cb157612cb061281f565b5b6000612cbf84828501612c86565b91505092915050565b60008060408385031215612cdf57612cde61281f565b5b6000612ced85828601612987565b9250506020612cfe85828601612c86565b9150509250929050565b60008115159050919050565b612d1d81612d08565b82525050565b612d2c81612c0e565b82525050565b612d3b81612829565b82525050565b608082016000820151612d576000850182612d14565b506020820151612d6a6020850182612d23565b506040820151612d7d6040850182612b0a565b506060820151612d906060850182612d32565b50505050565b6000608082019050612dab6000830184612d41565b92915050565b7f4e487b7100000000000000000000000000000000000000000000000000000000600052602160045260246000fd5b7f5468652063757272656e742073746174757320646f6573206e6f7420616c6c6f60008201527f772074686973206f7065726174696f6e00000000000000000000000000000000602082015250565b6000612e3c6030836129d4565b9150612e4782612de0565b604082019050919050565b60006020820190508181036000830152612e6b81612e2f565b9050919050565b7f4f7065726174696f6e206e6f7420616c6c6f776564203a20596f75206172652060008201527f6e6f742061207265676973746572656420766f74657200000000000000000000602082015250565b6000612ece6036836129d4565b9150612ed982612e72565b604082019050919050565b60006020820190508181036000830152612efd81612ec1565b9050919050565b7f506c656173652061646420746865206465736372697074696f6e206f6620796f60008201527f75722070726f706f73616c000000000000000000000000000000000000000000602082015250565b6000612f60602b836129d4565b9150612f6b82612f04565b604082019050919050565b60006020820190508181036000830152612f8f81612f53565b9050919050565b7f4d6178696d756d206e62206f662070726f706f73616c73207265616368656400600082015250565b6000612fcc601f836129d4565b9150612fd782612f96565b602082019050919050565b60006020820190508181036000830152612ffb81612fbf565b9050919050565b7f596f752063616e6e6f7420726567697374657220746865206e756c6c2061646460008201527f7265737300000000000000000000000000000000000000000000000000000000602082015250565b600061305e6024836129d4565b915061306982613002565b604082019050919050565b6000602082019050818103600083015261308d81613051565b9050919050565b7f4f7065726174696f6e206e6f7420616c6c6f776564203a20766f74652069732060008201527f616c72656164792074616c6c6965640000000000000000000000000000000000602082015250565b60006130f0602f836129d4565b91506130fb82613094565b604082019050919050565b6000602082019050818103600083015261311f816130e3565b9050919050565b7f546865726520617265206e6f20766f7465727320210000000000000000000000600082015250565b600061315c6015836129d4565b915061316782613126565b602082019050919050565b6000602082019050818103600083015261318b8161314f565b9050919050565b600681106131a3576131a2612db1565b5b50565b60008190506131b482613192565b919050565b60006131c4826131a6565b9050919050565b6131d4816131b9565b82525050565b60006040820190506131ef60008301856131cb565b6131fc60208301846131cb565b9392505050565b7f546865726520617265206e6f2070726f706f73616c7320210000000000000000600082015250565b60006132396018836129d4565b915061324482613203565b602082019050919050565b600060208201905081810360008301526132688161322c565b9050919050565b7f4e487b7100000000000000000000000000000000000000000000000000000000600052602260045260246000fd5b600060028204905060018216806132b657607f821691505b6020821081036132c9576132c861326f565b5b50919050565b7f546865206164647265737320676976656e20686173206e6f7420766f7465642e600082015250565b60006133056020836129d4565b9150613310826132cf565b602082019050919050565b60006020820190508181036000830152613334816132f8565b9050919050565b7f596f752063616e206f6e6c7920766f7465206f6e636500000000000000000000600082015250565b60006133716016836129d4565b915061337c8261333b565b602082019050919050565b600060208201905081810360008301526133a081613364565b9050919050565b7f54686520696420646f6573206e6f74206d6174636820746f20616e792070726f60008201527f706f73616c000000000000000000000000000000000000000000000000000000602082015250565b60006134036025836129d4565b915061340e826133a7565b604082019050919050565b60006020820190508181036000830152613432816133f6565b9050919050565b7f4e487b7100000000000000000000000000000000000000000000000000000000600052603260045260246000fd5b7f4e487b7100000000000000000000000000000000000000000000000000000000600052601160045260246000fd5b60006134a282612afa565b915063ffffffff82036134b8576134b7613468565b5b600182019050919050565b60006040820190506134d86000830185612c45565b6134e56020830184612c1b565b9392505050565b7f596f752063616e6e6f7420627269626520746869732061646472657373000000600082015250565b6000613522601d836129d4565b915061352d826134ec565b602082019050919050565b6000602082019050818103600083015261355181613515565b9050919050565b7f596f752063616e206f6e6c7920627269626520616e206164647265737320776860008201527f69636820686173206e6f7420766f746564207965740000000000000000000000602082015250565b60006135b46035836129d4565b91506135bf82613558565b604082019050919050565b600060208201905081810360008301526135e3816135a7565b9050919050565b7f596f7572206272696265206973206e6f7420656e6f7567680000000000000000600082015250565b60006136206018836129d4565b915061362b826135ea565b602082019050919050565b6000602082019050818103600083015261364f81613613565b9050919050565b600081905092915050565b50565b6000613671600083613656565b915061367c82613661565b600082019050919050565b600061369282613664565b9150819050919050565b7f4272696265206661696c65642021000000000000000000000000000000000000600082015250565b60006136d2600e836129d4565b91506136dd8261369c565b602082019050919050565b60006020820190508181036000830152613701816136c5565b9050919050565b7f4f776e61626c653a206e6577206f776e657220697320746865207a65726f206160008201527f6464726573730000000000000000000000000000000000000000000000000000602082015250565b60006137646026836129d4565b915061376f82613708565b604082019050919050565b6000602082019050818103600083015261379381613757565b9050919050565b7f4f776e61626c653a2063616c6c6572206973206e6f7420746865206f776e6572600082015250565b60006137d06020836129d4565b91506137db8261379a565b602082019050919050565b600060208201905081810360008301526137ff816137c3565b9050919050565b600061381182612c0e565b915060ff820361382457613823613468565b5b600182019050919050565b600061383a82612afa565b915061384583612afa565b92508263ffffffff0382111561385e5761385d613468565b5b828201905092915050565b7f4e487b7100000000000000000000000000000000000000000000000000000000600052603160045260246000fd5b60006138a382612829565b91506138ae83612829565b9250828210156138c1576138c0613468565b5b828203905092915050565b600061ffff82169050919050565b60006138e5826138cc565b915061ffff82036138f9576138f8613468565b5b60018201905091905056fea26469706673582212203cf25f007b2e192a7c1a0f4bf700ccc1334504cff65c8755ef0f7802e7f8f1d764736f6c634300080e0033",
  "immutableReferences": {},
  "source": "// SPDX-License-Identifier: GPL-3.0\n\npragma solidity >=0.8.13;\n\nimport \"../node_modules/@openzeppelin/contracts/access/Ownable.sol\";\nimport \"../node_modules/@openzeppelin/contracts/utils/Strings.sol\";\n\n\n/**\n * @title A Voting smart contract\n * @author Maxence Guillemain d'Echon\n * @notice You can use this contract to generate voting sessions\n**/\ncontract Voting is Ownable {\n\n    /** STRUCTS & ENUMS **/\n\n    struct Voter {\n        bool isRegistered;\n        \n        /**\n         * Replaces 'bool hasVoted'\n         * In order to handle ties - for which the voting session is re-openned.\n        **/\n        uint8 votedProposalId;\n        uint32 votesNb;\n\n        /**\n         * Added to handle bribes (i.e. a Voter buying the vote of an another Voter)\n         * Any value different from 0 indicates that the Voter is willing to sell her vote at the price of {bribe} Wei\n         * The bribe can be defined in {ProposalsRegistrationStarted} phase using the {defineBribe()} function.\n         * The bribe can be sent in {VotingSessionStarted} phase using the {bribe()} function. \n         * A Voter cannot be brided if she has already voted. Once bribed, the Voter cannot vote anymore. \n        **/\n        uint bribe; \n    }\n\n    struct Proposal {\n        string description;\n        uint32 voteCount;\n    }\n\n    enum WorkflowStatus {\n        RegisteringVoters,\n        ProposalsRegistrationStarted,\n        ProposalsRegistrationEnded,\n        VotingSessionStarted,\n        VotingSessionEnded,\n        VotesTallied\n    }\n\n    /** STATE VARIABLES **/\n\n    WorkflowStatus private status;\n    uint32 private totalVotesCount;\n    mapping (address => Voter) private voters;\n    Proposal[] private proposals;\n    uint8 private winningProposalId;\n    uint8 constant private MAX_PROPOSALS_NB = 100; /* To counter Gas Limit DoS */\n    bool private isAtLeastOneVoter;\n\n    /**\n     * To handle ties.\n     * If there are many more Voters than Proposals, ties are very unlikely to happen.\n     * Here ties are handled by starting a new voting session between the tie Proposals only.\n     * Thus, the WorkflowStatus is rewinded to VotingSessionStarted.\n    **/\n    bool private isWinnerFound;\n    uint16 private votingSessionsNb;\n\n    /** EVENTS **/\n\n    event VoterRegistered(address voterAddress); \n    event WorkflowStatusChange(WorkflowStatus previousStatus, WorkflowStatus nextStatus);\n    event ProposalRegistered(uint8 proposalId);\n    event Voted(address voterAddress, uint8 proposalId);\n    event Tie();\n\n    /** DEFAULT FUNCTIONS **/\n    /**\n     * @notice Initializes the contract.\n    **/\n    constructor() Ownable() {\n        status = WorkflowStatus.RegisteringVoters;\n        votingSessionsNb = 1;\n    }\n\n    /**\n     * @notice Initializes the contract.\n    **/\n    receive() external payable {\n    }\n\n    /** MODIFIERS **/\n\n    modifier onlyStatus(WorkflowStatus _status)  {\n        require (status == _status, \"The current status does not allow this operation\");\n        _;\n    }\n\n    modifier onlyRegisteredVoters() {\n        require (voters[msg.sender].isRegistered, \"Operation not allowed : You are not a registered voter\");\n        _;\n    }\n\n    /** FUNCTIONS **/\n\n    /**\n     * @notice During any phase (except {VotesTallied}), allows the owner to switch to the next phase.\n     * If the status is {VotingSessionEnded}, the votes are tallied.\n     * Then, the status is switched to {VotesTallied}, excepted if they is a tie, in which case, the status is\n     * rewinded to VotingSessionStarted, and a new voting session is started with only the ties Proposals.\n    **/\n    function nextPhase() external onlyOwner {\n        require (status != WorkflowStatus.VotesTallied, \"Operation not allowed : vote is already tallied\");\n\n        if (status == WorkflowStatus.RegisteringVoters) {\n            require (isAtLeastOneVoter, \"There are no voters !\");\n            status = WorkflowStatus.ProposalsRegistrationStarted;\n            emit WorkflowStatusChange(WorkflowStatus.RegisteringVoters, status);\n        }\n        else if (status == WorkflowStatus.ProposalsRegistrationStarted) {\n            require (proposals.length != 0, \"There are no proposals !\");\n            status = WorkflowStatus.ProposalsRegistrationEnded;\n            emit WorkflowStatusChange(WorkflowStatus.ProposalsRegistrationStarted, status);\n        }\n        else if (status == WorkflowStatus.ProposalsRegistrationEnded) {\n            status = WorkflowStatus.VotingSessionStarted;\n            emit WorkflowStatusChange(WorkflowStatus.ProposalsRegistrationEnded, status);\n        }\n        else if (status == WorkflowStatus.VotingSessionStarted) {\n            status = WorkflowStatus.VotingSessionEnded;\n            emit WorkflowStatusChange(WorkflowStatus.VotingSessionStarted, status);\n        }\n        else if (status == WorkflowStatus.VotingSessionEnded) {\n            _tallyHandleTie();\n            if (isWinnerFound) { \n                status = WorkflowStatus.VotesTallied;\n                emit WorkflowStatusChange(WorkflowStatus.VotingSessionEnded, status);\n            }\n            else { // Rewind the status to start a new Voting session \n                status = WorkflowStatus.VotingSessionStarted;\n                emit WorkflowStatusChange(WorkflowStatus.VotingSessionEnded, status);\n                emit Tie();\n            }\n        }\n    }\n\n    /**\n     * @notice During the {RegisteringVoters} phase, allows the Owner to register a Voter.\n     * @param _addr the address of the Voter to register.\n    **/\n    function registerVoter(address _addr) external onlyOwner onlyStatus(WorkflowStatus.RegisteringVoters) {\n        require (_addr != address(0), \"You cannot register the null address\");\n\n        voters[_addr] = Voter(true, 0, 0, 0);\n        if (!isAtLeastOneVoter)\n            isAtLeastOneVoter = true;\n\n        emit VoterRegistered(_addr);\n    }\n\n    /**\n    * @notice After the {RegisteringVoters} phase, allows the Owner to get a Voter.\n    * @param _addr the address of the Voter to get.\n    **/\n    function getVoter(address _addr) external view returns(Voter memory) {\n        require (status != WorkflowStatus.RegisteringVoters, \"The current status does not allow this operation\");\n        return voters[_addr];\n    }\n\n    /**\n     * @notice During the {ProposalsRegistrationStarted} phase, allows a registered Voter to register a Proposal.\n     * @param _description the description of the proposal to register. \n    **/\n    function registerProposal(string calldata _description) external onlyStatus(WorkflowStatus.ProposalsRegistrationStarted) onlyRegisteredVoters {\n        require (bytes(_description).length != 0, \"Please add the description of your proposal\");\n        uint8 _id = uint8(proposals.length); \n        require (_id < MAX_PROPOSALS_NB, \"Maximum nb of proposals reached\");  /* To counter Gas Limit DoS */\n        \n        proposals.push(Proposal(_description, 0)); \n\n        emit ProposalRegistered(_id);\n    }\n\n    /**\n     * @notice During the {ProposalsRegistrationStarted} phase, allows a registered Voter to sets the minimum \n     * bribe value that she requests to sell her vote.\n     * @param _value the minimum bribe value requested to sell the vote.\n    **/\n    function defineBribe(uint _value) external onlyStatus(WorkflowStatus.ProposalsRegistrationStarted) onlyRegisteredVoters {\n        voters[msg.sender].bribe = _value;\n    }\n\n    /**\n    * @notice During the {VotingSessionStarted} phase, allows a Voter to get the proposals.\n    **/\n    function getProposals() external  onlyStatus(WorkflowStatus.VotingSessionStarted) onlyRegisteredVoters view returns(Proposal[] memory) {\n        return proposals;\n    }\n\n    /**\n     * @notice During the {VotingSessionStarted} phase, allows a registered Voter to vote for any registered Proposal.\n     * Proposals are identified by a unique _id.\n     * @param _id the id of the proposal to vote for.\n    **/\n    function vote(uint8 _id) external onlyStatus(WorkflowStatus.VotingSessionStarted) onlyRegisteredVoters {\n        require (voters[msg.sender].votesNb < votingSessionsNb, \"You can only vote once\");\n        require (_id < proposals.length, \"The id does not match to any proposal\");\n\n        proposals[_id].voteCount++;\n        voters[msg.sender].votesNb++;\n        voters[msg.sender].votedProposalId = _id;\n\n        emit Voted(msg.sender, _id);\n    }\n\n    /**\n     * @notice During the {VotingSessionStarted} phase, allows a registered Voter to send a bribe \n     * to another registered Voter.\n     * @param _addr the address of the Voter to bribe.\n     * @param _id the id of the proposal to vote for.\n    **/\n    function bribe(address _addr, uint8 _id) external payable onlyStatus(WorkflowStatus.VotingSessionStarted) onlyRegisteredVoters {\n        require (voters[_addr].bribe != 0, \"You cannot bribe this address\");\n        require (voters[_addr].votesNb < votingSessionsNb, \"You can only bribe an address which has not voted yet\");\n        require (voters[_addr].bribe <= msg.value, \"Your bribe is not enough\");\n        require (_id < proposals.length, \"The id does not match to any proposal\");\n\n        /** To prevent reentrency attacks, the voteCount is updated before sending the bribe. */\n        proposals[_id].voteCount++;\n        voters[_addr].votesNb++;\n        voters[_addr].votedProposalId = _id;\n\n        (bool success, ) = _addr.call{value:msg.value, gas: 25000}(\"\");\n        require (success, \"Bribe failed !\");\n\n        emit Voted(_addr, _id);\n    }\n\n    /**\n     * @dev Internal function to tally the votes, handling ties.\n     * Also counts the total number of votes and stores it in {totalVotesCount}.\n    **/\n    function _tallyHandleTie() internal {\n        uint32 _maxCount;\n        uint32 _totalVotesCount;\n        uint8[MAX_PROPOSALS_NB] memory _winningProposalIds;\n        Proposal[MAX_PROPOSALS_NB] memory _winningProposals;\n        uint8 _winningProposalsNb;\n\n        // Finds the Proposal(s) with the greatest vote count, and stores them and their _ids in _winningProposals and _winningProposalIds\n        for (uint8 _id=0; _id<proposals.length; _id++) {\n            if (proposals[_id].voteCount >= _maxCount) {\n                // If the winning proposals have less votes than the currently watched proposal, remove them from the winning list \n                if (proposals[_id].voteCount > _maxCount)\n                    _winningProposalsNb = 0;\n                _winningProposalIds[_winningProposalsNb] = _id;\n                _winningProposals[_winningProposalsNb] = proposals[_id];\n                _winningProposalsNb++;\n                _maxCount = proposals[_id].voteCount;\n            }\n            _totalVotesCount += proposals[_id].voteCount;\n        }\n        totalVotesCount = _totalVotesCount;\n\n        if (_winningProposalsNb == 1) { \n            // There is no Tie, we set the Winner.\n            winningProposalId = _winningProposalIds[0];\n            isWinnerFound = true;\n        }\n        else {\n            // There is a Tie, the list of Proposals is replaced by the list of the winning Proposals.\n            while (proposals.length != 0)\n                proposals.pop();\n            uint8 _id = 0;\n            while (proposals.length != _winningProposalsNb) {\n                proposals.push(_winningProposals[_id++]);\n                proposals[proposals.length - 1].voteCount = 0;\n            }\n            votingSessionsNb ++;\n        }\n    }\n\n    /**\n     * @notice During any phase, allows anybody to see current phase.\n     * @return status a string containing the status.\n    **/\n    function getStatus() external view returns(string memory) {\n        string memory str;\n        if (status == WorkflowStatus.RegisteringVoters) {\n            str = \"RegisteringVoters\";\n        }\n        else if (status == WorkflowStatus.ProposalsRegistrationStarted) {\n            str = \"ProposalsRegistrationStarted\";\n        }\n        else if (status == WorkflowStatus.ProposalsRegistrationEnded) {\n            str = \"ProposalsRegistrationEnded\";\n        }\n        else if (status == WorkflowStatus.VotingSessionStarted) {\n            str = \"VotingSessionStarted\";\n        }\n        else if (status == WorkflowStatus.VotingSessionEnded) {\n            str = \"VotingSessionEnded\";\n        }\n        else if (status == WorkflowStatus.VotesTallied) {\n            str = \"VotesTallied\";\n        }\n        return str;\n    }\n\n    /**\n     * @notice During the {VotingSessionStarted} phase and after, allows a registered Voter to see the vote  \n     * of another registered Voter, giving only her address.\n     * @param _addr the address to get the vote of.\n     * @return _id the id of the voted proposal.\n    **/\n    function getVote(address _addr) external view onlyRegisteredVoters returns(uint8) {\n        require (voters[_addr].votesNb >= votingSessionsNb, \"The address given has not voted.\");\n        return voters[_addr].votedProposalId;\n    }\n\n    /**\n     * @notice During the {VotesTallied} phase, allows anybody to get the winning Proposal id.\n     * @return winningProposalId the id of the winning proposal.\n    **/\n    function getWinner() external view onlyStatus(WorkflowStatus.VotesTallied) returns(uint8) {\n        return winningProposalId;\n    }\n}",
  "sourcePath": "/home/crow/Dev/Alyra/VotingDApp/truffle/contracts/Voting.sol",
  "compiler": {
    "name": "solc",
    "version": "0.8.14+commit.80d49f37.Emscripten.clang"
  },
  "schemaVersion": "3.4.10",
  "updatedAt": "2022-11-22T16:46:19.846Z",
  "networkType": "ethereum",
  "devdoc": {
    "author": "Maxence Guillemain d'Echon",
    "kind": "dev",
    "methods": {
      "bribe(address,uint8)": {
        "params": {
          "_addr": "the address of the Voter to bribe.",
          "_id": "the id of the proposal to vote for.*"
        }
      },
      "defineBribe(uint256)": {
        "params": {
          "_value": "the minimum bribe value requested to sell the vote.*"
        }
      },
      "getStatus()": {
        "returns": {
          "_0": "status a string containing the status.*"
        }
      },
      "getVote(address)": {
        "params": {
          "_addr": "the address to get the vote of."
        },
        "returns": {
          "_0": "_id the id of the voted proposal.*"
        }
      },
      "getVoter(address)": {
        "params": {
          "_addr": "the address of the Voter to get.*"
        }
      },
      "getWinner()": {
        "returns": {
          "_0": "winningProposalId the id of the winning proposal.*"
        }
      },
      "owner()": {
        "details": "Returns the address of the current owner."
      },
      "registerProposal(string)": {
        "params": {
          "_description": "the description of the proposal to register. *"
        }
      },
      "registerVoter(address)": {
        "params": {
          "_addr": "the address of the Voter to register.*"
        }
      },
      "renounceOwnership()": {
        "details": "Leaves the contract without owner. It will not be possible to call `onlyOwner` functions anymore. Can only be called by the current owner. NOTE: Renouncing ownership will leave the contract without an owner, thereby removing any functionality that is only available to the owner."
      },
      "transferOwnership(address)": {
        "details": "Transfers ownership of the contract to a new account (`newOwner`). Can only be called by the current owner."
      },
      "vote(uint8)": {
        "params": {
          "_id": "the id of the proposal to vote for.*"
        }
      }
    },
    "title": "A Voting smart contract",
    "version": 1
  },
  "userdoc": {
    "events": {
      "VoterRegistered(address)": {
        "notice": "EVENTS *"
      }
    },
    "kind": "user",
    "methods": {
      "bribe(address,uint8)": {
        "notice": "During the {VotingSessionStarted} phase, allows a registered Voter to send a bribe  to another registered Voter."
      },
      "constructor": {
        "notice": "Initializes the contract.*"
      },
      "defineBribe(uint256)": {
        "notice": "During the {ProposalsRegistrationStarted} phase, allows a registered Voter to sets the minimum  bribe value that she requests to sell her vote."
      },
      "getProposals()": {
        "notice": "During the {VotingSessionStarted} phase, allows a Voter to get the proposals.*"
      },
      "getStatus()": {
        "notice": "During any phase, allows anybody to see current phase."
      },
      "getVote(address)": {
        "notice": "During the {VotingSessionStarted} phase and after, allows a registered Voter to see the vote   of another registered Voter, giving only her address."
      },
      "getVoter(address)": {
        "notice": "After the {RegisteringVoters} phase, allows the Owner to get a Voter."
      },
      "getWinner()": {
        "notice": "During the {VotesTallied} phase, allows anybody to get the winning Proposal id."
      },
      "nextPhase()": {
        "notice": "During any phase (except {VotesTallied}), allows the owner to switch to the next phase. If the status is {VotingSessionEnded}, the votes are tallied. Then, the status is switched to {VotesTallied}, excepted if they is a tie, in which case, the status is rewinded to VotingSessionStarted, and a new voting session is started with only the ties Proposals.*"
      },
      "registerProposal(string)": {
        "notice": "During the {ProposalsRegistrationStarted} phase, allows a registered Voter to register a Proposal."
      },
      "registerVoter(address)": {
        "notice": "During the {RegisteringVoters} phase, allows the Owner to register a Voter."
      },
      "vote(uint8)": {
        "notice": "During the {VotingSessionStarted} phase, allows a registered Voter to vote for any registered Proposal. Proposals are identified by a unique _id."
      }
    },
    "notice": "You can use this contract to generate voting sessions*",
    "version": 1
  }
}