{
  "contractName": "VotingOld",
  "abi": [
    {
      "inputs": [],
      "stateMutability": "nonpayable",
      "type": "constructor"
    },
    {
      "anonymous": false,
      "inputs": [
        {
          "indexed": true,
          "internalType": "address",
          "name": "previousOwner",
          "type": "address"
        },
        {
          "indexed": true,
          "internalType": "address",
          "name": "newOwner",
          "type": "address"
        }
      ],
      "name": "OwnershipTransferred",
      "type": "event"
    },
    {
      "anonymous": false,
      "inputs": [
        {
          "indexed": false,
          "internalType": "uint256",
          "name": "proposalId",
          "type": "uint256"
        }
      ],
      "name": "ProposalRegistered",
      "type": "event"
    },
    {
      "anonymous": false,
      "inputs": [],
      "name": "Tie",
      "type": "event"
    },
    {
      "anonymous": false,
      "inputs": [
        {
          "indexed": false,
          "internalType": "address",
          "name": "voter",
          "type": "address"
        },
        {
          "indexed": false,
          "internalType": "uint256",
          "name": "proposalId",
          "type": "uint256"
        }
      ],
      "name": "Voted",
      "type": "event"
    },
    {
      "anonymous": false,
      "inputs": [
        {
          "indexed": false,
          "internalType": "address",
          "name": "voterAddress",
          "type": "address"
        }
      ],
      "name": "VoterRegistered",
      "type": "event"
    },
    {
      "anonymous": false,
      "inputs": [
        {
          "indexed": false,
          "internalType": "enum VotingOld.WorkflowStatus",
          "name": "previousStatus",
          "type": "uint8"
        },
        {
          "indexed": false,
          "internalType": "enum VotingOld.WorkflowStatus",
          "name": "nextStatus",
          "type": "uint8"
        }
      ],
      "name": "WorkflowStatusChange",
      "type": "event"
    },
    {
      "inputs": [],
      "name": "owner",
      "outputs": [
        {
          "internalType": "address",
          "name": "",
          "type": "address"
        }
      ],
      "stateMutability": "view",
      "type": "function"
    },
    {
      "inputs": [],
      "name": "renounceOwnership",
      "outputs": [],
      "stateMutability": "nonpayable",
      "type": "function"
    },
    {
      "inputs": [
        {
          "internalType": "address",
          "name": "newOwner",
          "type": "address"
        }
      ],
      "name": "transferOwnership",
      "outputs": [],
      "stateMutability": "nonpayable",
      "type": "function"
    },
    {
      "stateMutability": "payable",
      "type": "receive"
    },
    {
      "inputs": [],
      "name": "nextPhase",
      "outputs": [],
      "stateMutability": "nonpayable",
      "type": "function"
    },
    {
      "inputs": [
        {
          "internalType": "address",
          "name": "_addr",
          "type": "address"
        }
      ],
      "name": "registerVoter",
      "outputs": [],
      "stateMutability": "nonpayable",
      "type": "function"
    },
    {
      "inputs": [
        {
          "internalType": "string",
          "name": "_description",
          "type": "string"
        }
      ],
      "name": "registerProposal",
      "outputs": [],
      "stateMutability": "nonpayable",
      "type": "function"
    },
    {
      "inputs": [
        {
          "internalType": "uint256",
          "name": "_value",
          "type": "uint256"
        }
      ],
      "name": "defineBribe",
      "outputs": [],
      "stateMutability": "nonpayable",
      "type": "function"
    },
    {
      "inputs": [
        {
          "internalType": "uint256",
          "name": "_id",
          "type": "uint256"
        }
      ],
      "name": "vote",
      "outputs": [],
      "stateMutability": "nonpayable",
      "type": "function"
    },
    {
      "inputs": [
        {
          "internalType": "address",
          "name": "_addr",
          "type": "address"
        },
        {
          "internalType": "uint256",
          "name": "_id",
          "type": "uint256"
        }
      ],
      "name": "bribe",
      "outputs": [],
      "stateMutability": "payable",
      "type": "function"
    },
    {
      "inputs": [],
      "name": "getStatus",
      "outputs": [
        {
          "internalType": "string",
          "name": "",
          "type": "string"
        }
      ],
      "stateMutability": "view",
      "type": "function"
    },
    {
      "inputs": [
        {
          "internalType": "address",
          "name": "_addr",
          "type": "address"
        }
      ],
      "name": "getVote",
      "outputs": [
        {
          "internalType": "uint256",
          "name": "",
          "type": "uint256"
        }
      ],
      "stateMutability": "view",
      "type": "function"
    },
    {
      "inputs": [],
      "name": "getWinner",
      "outputs": [
        {
          "internalType": "uint256",
          "name": "",
          "type": "uint256"
        }
      ],
      "stateMutability": "view",
      "type": "function"
    }
  ],
  "bytecode": "0x60806040523480156200001157600080fd5b5062000032620000266200007560201b60201c565b6200007d60201b60201c565b60008060146101000a81548160ff021916908360058111156200005a576200005962000141565b5b02179055506001600881905550606460058190555062000170565b600033905090565b60008060009054906101000a900473ffffffffffffffffffffffffffffffffffffffff169050816000806101000a81548173ffffffffffffffffffffffffffffffffffffffff021916908373ffffffffffffffffffffffffffffffffffffffff1602179055508173ffffffffffffffffffffffffffffffffffffffff168173ffffffffffffffffffffffffffffffffffffffff167f8be0079c531659141344cd1fd0a4f28419497f9722a3daafe3b4186f6b6457e060405160405180910390a35050565b7f4e487b7100000000000000000000000000000000000000000000000000000000600052602160045260246000fd5b612fe380620001806000396000f3fe6080604052600436106100ab5760003560e01c80634e69d560116100645780634e69d5601461018e578063715018a6146101b95780638d337b81146101d05780638da5cb5b1461020d5780638e7ea5b214610238578063f2fde38b14610263576100b2565b80630121b93f146100b757806311660552146100e05780632f95355b1461010957806338db6dd3146101325780633eadb6db1461015b5780634667d6fc14610172576100b2565b366100b257005b600080fd5b3480156100c357600080fd5b506100de60048036038101906100d991906121ca565b61028c565b005b3480156100ec57600080fd5b50610107600480360381019061010291906121ca565b610576565b005b34801561011557600080fd5b50610130600480360381019061012b919061225c565b6106c7565b005b34801561013e57600080fd5b5061015960048036038101906101549190612307565b61094c565b005b34801561016757600080fd5b50610170610b4c565b005b61018c60048036038101906101879190612334565b6110a8565b005b34801561019a57600080fd5b506101a361154f565b6040516101b0919061240d565b60405180910390f35b3480156101c557600080fd5b506101ce611829565b005b3480156101dc57600080fd5b506101f760048036038101906101f29190612307565b61183d565b604051610204919061243e565b60405180910390f35b34801561021957600080fd5b5061022261199f565b60405161022f9190612468565b60405180910390f35b34801561024457600080fd5b5061024d6119c8565b60405161025a919061243e565b60405180910390f35b34801561026f57600080fd5b5061028a60048036038101906102859190612307565b611a4a565b005b60038060058111156102a1576102a0612483565b5b600060149054906101000a900460ff1660058111156102c3576102c2612483565b5b14610303576040517f08c379a00000000000000000000000000000000000000000000000000000000081526004016102fa90612524565b60405180910390fd5b600360003373ffffffffffffffffffffffffffffffffffffffff1673ffffffffffffffffffffffffffffffffffffffff16815260200190815260200160002060000160009054906101000a900460ff16610392576040517f08c379a0000000000000000000000000000000000000000000000000000000008152600401610389906125b6565b60405180910390fd5b600854600360003373ffffffffffffffffffffffffffffffffffffffff1673ffffffffffffffffffffffffffffffffffffffff1681526020019081526020016000206001015410610418576040517f08c379a000000000000000000000000000000000000000000000000000000000815260040161040f90612622565b60405180910390fd5b600480549050821061045f576040517f08c379a0000000000000000000000000000000000000000000000000000000008152600401610456906126b4565b60405180910390fd5b60048281548110610473576104726126d4565b5b9060005260206000209060020201600101600081548092919061049590612732565b9190505550600360003373ffffffffffffffffffffffffffffffffffffffff1673ffffffffffffffffffffffffffffffffffffffff16815260200190815260200160002060010160008154809291906104ed90612732565b919050555081600360003373ffffffffffffffffffffffffffffffffffffffff1673ffffffffffffffffffffffffffffffffffffffff168152602001908152602001600020600201819055507f4d99b957a2bc29a30ebd96a7be8e68fe50a3c701db28a91436490b7d53870ca4338360405161056a92919061277a565b60405180910390a15050565b600180600581111561058b5761058a612483565b5b600060149054906101000a900460ff1660058111156105ad576105ac612483565b5b146105ed576040517f08c379a00000000000000000000000000000000000000000000000000000000081526004016105e490612524565b60405180910390fd5b600360003373ffffffffffffffffffffffffffffffffffffffff1673ffffffffffffffffffffffffffffffffffffffff16815260200190815260200160002060000160009054906101000a900460ff1661067c576040517f08c379a0000000000000000000000000000000000000000000000000000000008152600401610673906125b6565b60405180910390fd5b81600360003373ffffffffffffffffffffffffffffffffffffffff1673ffffffffffffffffffffffffffffffffffffffff168152602001908152602001600020600301819055505050565b60018060058111156106dc576106db612483565b5b600060149054906101000a900460ff1660058111156106fe576106fd612483565b5b1461073e576040517f08c379a000000000000000000000000000000000000000000000000000000000815260040161073590612524565b60405180910390fd5b600360003373ffffffffffffffffffffffffffffffffffffffff1673ffffffffffffffffffffffffffffffffffffffff16815260200190815260200160002060000160009054906101000a900460ff166107cd576040517f08c379a00000000000000000000000000000000000000000000000000000000081526004016107c4906125b6565b60405180910390fd5b60008383905003610813576040517f08c379a000000000000000000000000000000000000000000000000000000000815260040161080a90612815565b60405180910390fd5b600060048054905090506005548110610861576040517f08c379a000000000000000000000000000000000000000000000000000000000815260040161085890612881565b60405180910390fd5b6004604051806040016040528086868080601f016020809104026020016040519081016040528093929190818152602001838380828437600081840152601f19601f82011690508083019250505050505050815260200160008152509080600181540180825580915050600190039060005260206000209060020201600090919091909150600082015181600001908051906020019061090292919061201a565b506020820151816001015550507f92e393e9b54e2f801d3ea4beb0c5e71a21cc34a5d34b77d0fb8a3aa1650dc18f8160405161093e919061243e565b60405180910390a150505050565b610954611acd565b600080600581111561096957610968612483565b5b600060149054906101000a900460ff16600581111561098b5761098a612483565b5b146109cb576040517f08c379a00000000000000000000000000000000000000000000000000000000081526004016109c290612524565b60405180910390fd5b600073ffffffffffffffffffffffffffffffffffffffff168273ffffffffffffffffffffffffffffffffffffffff1603610a3a576040517f08c379a0000000000000000000000000000000000000000000000000000000008152600401610a3190612913565b60405180910390fd5b604051806080016040528060011515815260200160008152602001600081526020016000815250600360008473ffffffffffffffffffffffffffffffffffffffff1673ffffffffffffffffffffffffffffffffffffffff16815260200190815260200160002060008201518160000160006101000a81548160ff021916908315150217905550602082015181600101556040820151816002015560608201518160030155905050600660009054906101000a900460ff16610b11576001600660006101000a81548160ff0219169083151502179055505b7fb6be2187d059cc2a55fe29e0e503b566e1e0f8c8780096e185429350acffd3dd82604051610b409190612468565b60405180910390a15050565b610b54611acd565b600580811115610b6757610b66612483565b5b600060149054906101000a900460ff166005811115610b8957610b88612483565b5b03610bc9576040517f08c379a0000000000000000000000000000000000000000000000000000000008152600401610bc0906129a5565b60405180910390fd5b60006005811115610bdd57610bdc612483565b5b600060149054906101000a900460ff166005811115610bff57610bfe612483565b5b03610ccb57600660009054906101000a900460ff16610c53576040517f08c379a0000000000000000000000000000000000000000000000000000000008152600401610c4a90612a11565b60405180910390fd5b6001600060146101000a81548160ff02191690836005811115610c7957610c78612483565b5b02179055507f0a97a4ee45751e2abf3e4fc8946939630b11b371ea8ae39ccdc3056e98f5cc3f60008060149054906101000a900460ff16604051610cbe929190612a79565b60405180910390a16110a6565b60016005811115610cdf57610cde612483565b5b600060149054906101000a900460ff166005811115610d0157610d00612483565b5b03610dc757600060048054905003610d4e576040517f08c379a0000000000000000000000000000000000000000000000000000000008152600401610d4590612aee565b60405180910390fd5b6002600060146101000a81548160ff02191690836005811115610d7457610d73612483565b5b02179055507f0a97a4ee45751e2abf3e4fc8946939630b11b371ea8ae39ccdc3056e98f5cc3f6001600060149054906101000a900460ff16604051610dba929190612a79565b60405180910390a16110a5565b60026005811115610ddb57610dda612483565b5b600060149054906101000a900460ff166005811115610dfd57610dfc612483565b5b03610e7b576003600060146101000a81548160ff02191690836005811115610e2857610e27612483565b5b02179055507f0a97a4ee45751e2abf3e4fc8946939630b11b371ea8ae39ccdc3056e98f5cc3f6002600060149054906101000a900460ff16604051610e6e929190612a79565b60405180910390a16110a4565b60036005811115610e8f57610e8e612483565b5b600060149054906101000a900460ff166005811115610eb157610eb0612483565b5b03610f2f576004600060146101000a81548160ff02191690836005811115610edc57610edb612483565b5b02179055507f0a97a4ee45751e2abf3e4fc8946939630b11b371ea8ae39ccdc3056e98f5cc3f6003600060149054906101000a900460ff16604051610f22929190612a79565b60405180910390a16110a3565b60046005811115610f4357610f42612483565b5b600060149054906101000a900460ff166005811115610f6557610f64612483565b5b036110a257610f72611b4b565b600a60009054906101000a900460ff1615611000576005600060146101000a81548160ff02191690836005811115610fad57610fac612483565b5b02179055507f0a97a4ee45751e2abf3e4fc8946939630b11b371ea8ae39ccdc3056e98f5cc3f6004600060149054906101000a900460ff16604051610ff3929190612a79565b60405180910390a16110a1565b6003600060146101000a81548160ff0219169083600581111561102657611025612483565b5b02179055507f0a97a4ee45751e2abf3e4fc8946939630b11b371ea8ae39ccdc3056e98f5cc3f6004600060149054906101000a900460ff1660405161106c929190612a79565b60405180910390a17f03d3457fc00afd1fa10475c1053b47c3bc256b7633702671cd8c93af3609abb760405160405180910390a15b5b5b5b5b5b565b60038060058111156110bd576110bc612483565b5b600060149054906101000a900460ff1660058111156110df576110de612483565b5b1461111f576040517f08c379a000000000000000000000000000000000000000000000000000000000815260040161111690612524565b60405180910390fd5b600360003373ffffffffffffffffffffffffffffffffffffffff1673ffffffffffffffffffffffffffffffffffffffff16815260200190815260200160002060000160009054906101000a900460ff166111ae576040517f08c379a00000000000000000000000000000000000000000000000000000000081526004016111a5906125b6565b60405180910390fd5b6000600360008573ffffffffffffffffffffffffffffffffffffffff1673ffffffffffffffffffffffffffffffffffffffff1681526020019081526020016000206003015403611233576040517f08c379a000000000000000000000000000000000000000000000000000000000815260040161122a90612b5a565b60405180910390fd5b600854600360008573ffffffffffffffffffffffffffffffffffffffff1673ffffffffffffffffffffffffffffffffffffffff16815260200190815260200160002060010154106112b9576040517f08c379a00000000000000000000000000000000000000000000000000000000081526004016112b090612bec565b60405180910390fd5b34600360008573ffffffffffffffffffffffffffffffffffffffff1673ffffffffffffffffffffffffffffffffffffffff16815260200190815260200160002060030154111561133e576040517f08c379a000000000000000000000000000000000000000000000000000000000815260040161133590612c58565b60405180910390fd5b6004805490508210611385576040517f08c379a000000000000000000000000000000000000000000000000000000000815260040161137c906126b4565b60405180910390fd5b60048281548110611399576113986126d4565b5b906000526020600020906002020160010160008154809291906113bb90612732565b9190505550600360008473ffffffffffffffffffffffffffffffffffffffff1673ffffffffffffffffffffffffffffffffffffffff168152602001908152602001600020600101600081548092919061141390612732565b919050555081600360008573ffffffffffffffffffffffffffffffffffffffff1673ffffffffffffffffffffffffffffffffffffffff1681526020019081526020016000206002018190555060008373ffffffffffffffffffffffffffffffffffffffff16346161a89060405161148990612ca9565b600060405180830381858888f193505050503d80600081146114c7576040519150601f19603f3d011682016040523d82523d6000602084013e6114cc565b606091505b5050905080611510576040517f08c379a000000000000000000000000000000000000000000000000000000000815260040161150790612d0a565b60405180910390fd5b7f4d99b957a2bc29a30ebd96a7be8e68fe50a3c701db28a91436490b7d53870ca4848460405161154192919061277a565b60405180910390a150505050565b6060806000600581111561156657611565612483565b5b600060149054906101000a900460ff16600581111561158857611587612483565b5b036115ca576040518060400160405280601181526020017f5265676973746572696e67566f746572730000000000000000000000000000008152509050611822565b600160058111156115de576115dd612483565b5b600060149054906101000a900460ff166005811115611600576115ff612483565b5b03611642576040518060400160405280601c81526020017f50726f706f73616c73526567697374726174696f6e53746172746564000000008152509050611821565b6002600581111561165657611655612483565b5b600060149054906101000a900460ff16600581111561167857611677612483565b5b036116ba576040518060400160405280601a81526020017f50726f706f73616c73526567697374726174696f6e456e6465640000000000008152509050611820565b600360058111156116ce576116cd612483565b5b600060149054906101000a900460ff1660058111156116f0576116ef612483565b5b03611732576040518060400160405280601481526020017f566f74696e6753657373696f6e53746172746564000000000000000000000000815250905061181f565b6004600581111561174657611745612483565b5b600060149054906101000a900460ff16600581111561176857611767612483565b5b036117aa576040518060400160405280601281526020017f566f74696e6753657373696f6e456e6465640000000000000000000000000000815250905061181e565b6005808111156117bd576117bc612483565b5b600060149054906101000a900460ff1660058111156117df576117de612483565b5b0361181d576040518060400160405280600c81526020017f566f74657354616c6c696564000000000000000000000000000000000000000081525090505b5b5b5b5b5b8091505090565b611831611acd565b61183b6000611f4e565b565b6000600360003373ffffffffffffffffffffffffffffffffffffffff1673ffffffffffffffffffffffffffffffffffffffff16815260200190815260200160002060000160009054906101000a900460ff166118ce576040517f08c379a00000000000000000000000000000000000000000000000000000000081526004016118c5906125b6565b60405180910390fd5b600854600360008473ffffffffffffffffffffffffffffffffffffffff1673ffffffffffffffffffffffffffffffffffffffff168152602001908152602001600020600101541015611955576040517f08c379a000000000000000000000000000000000000000000000000000000000815260040161194c90612d76565b60405180910390fd5b600360008373ffffffffffffffffffffffffffffffffffffffff1673ffffffffffffffffffffffffffffffffffffffff168152602001908152602001600020600201549050919050565b60008060009054906101000a900473ffffffffffffffffffffffffffffffffffffffff16905090565b600060058060058111156119df576119de612483565b5b600060149054906101000a900460ff166005811115611a0157611a00612483565b5b14611a41576040517f08c379a0000000000000000000000000000000000000000000000000000000008152600401611a3890612524565b60405180910390fd5b60015491505090565b611a52611acd565b600073ffffffffffffffffffffffffffffffffffffffff168173ffffffffffffffffffffffffffffffffffffffff1603611ac1576040517f08c379a0000000000000000000000000000000000000000000000000000000008152600401611ab890612e08565b60405180910390fd5b611aca81611f4e565b50565b611ad5612012565b73ffffffffffffffffffffffffffffffffffffffff16611af361199f565b73ffffffffffffffffffffffffffffffffffffffff1614611b49576040517f08c379a0000000000000000000000000000000000000000000000000000000008152600401611b4090612e74565b60405180910390fd5b565b60008060005b600480549050811015611d5a578260048281548110611b7357611b726126d4565b5b90600052602060002090600202016001015410611d14578260048281548110611b9f57611b9e6126d4565b5b9060005260206000209060020201600101541115611c49575b600060078054905014611bf2576007805480611bd757611bd6612e94565b5b60019003818190600052602060002001600090559055611bb8565b5b600060098054905014611c48576009805480611c1257611c11612e94565b5b600190038181906000526020600020906002020160008082016000611c3791906120a0565b600182016000905550509055611bf3565b5b6007819080600181540180825580915050600190039060005260206000200160009091909190915055600960048281548110611c8857611c876126d4565b5b906000526020600020906002020190806001815401808255809150506001900390600052602060002090600202016000909190919091506000820181600001908054611cd390612ef2565b611cde9291906120e0565b5060018201548160010155505060048181548110611cff57611cfe6126d4565b5b90600052602060002090600202016001015492505b60048181548110611d2857611d276126d4565b5b90600052602060002090600202016001015482611d459190612f23565b91508080611d5290612732565b915050611b51565b5080600281905550600160078054905003611db5576007600081548110611d8457611d836126d4565b5b90600052602060002001546001819055506001600a60006101000a81548160ff021916908315150217905550611f4a565b5b600060048054905014611e0b576004805480611dd557611dd4612e94565b5b600190038181906000526020600020906002020160008082016000611dfa91906120a0565b600182016000905550509055611db6565b600060098054905090505b8060048054905014611f3057600460096001600980549050611e389190612f79565b81548110611e4957611e486126d4565b5b906000526020600020906002020190806001815401808255809150506001900390600052602060002090600202016000909190919091506000820181600001908054611e9490612ef2565b611e9f9291906120e0565b50600182015481600101555050600060046001600480549050611ec29190612f79565b81548110611ed357611ed26126d4565b5b9060005260206000209060020201600101819055506009805480611efa57611ef9612e94565b5b600190038181906000526020600020906002020160008082016000611f1f91906120a0565b600182016000905550509055611e16565b60086000815480929190611f4390612732565b9190505550505b5050565b60008060009054906101000a900473ffffffffffffffffffffffffffffffffffffffff169050816000806101000a81548173ffffffffffffffffffffffffffffffffffffffff021916908373ffffffffffffffffffffffffffffffffffffffff1602179055508173ffffffffffffffffffffffffffffffffffffffff168173ffffffffffffffffffffffffffffffffffffffff167f8be0079c531659141344cd1fd0a4f28419497f9722a3daafe3b4186f6b6457e060405160405180910390a35050565b600033905090565b82805461202690612ef2565b90600052602060002090601f016020900481019282612048576000855561208f565b82601f1061206157805160ff191683800117855561208f565b8280016001018555821561208f579182015b8281111561208e578251825591602001919060010190612073565b5b50905061209c919061216d565b5090565b5080546120ac90612ef2565b6000825580601f106120be57506120dd565b601f0160209004906000526020600020908101906120dc919061216d565b5b50565b8280546120ec90612ef2565b90600052602060002090601f01602090048101928261210e576000855561215c565b82601f1061211f578054855561215c565b8280016001018555821561215c57600052602060002091601f016020900482015b8281111561215b578254825591600101919060010190612140565b5b509050612169919061216d565b5090565b5b8082111561218657600081600090555060010161216e565b5090565b600080fd5b600080fd5b6000819050919050565b6121a781612194565b81146121b257600080fd5b50565b6000813590506121c48161219e565b92915050565b6000602082840312156121e0576121df61218a565b5b60006121ee848285016121b5565b91505092915050565b600080fd5b600080fd5b600080fd5b60008083601f84011261221c5761221b6121f7565b5b8235905067ffffffffffffffff811115612239576122386121fc565b5b60208301915083600182028301111561225557612254612201565b5b9250929050565b600080602083850312156122735761227261218a565b5b600083013567ffffffffffffffff8111156122915761229061218f565b5b61229d85828601612206565b92509250509250929050565b600073ffffffffffffffffffffffffffffffffffffffff82169050919050565b60006122d4826122a9565b9050919050565b6122e4816122c9565b81146122ef57600080fd5b50565b600081359050612301816122db565b92915050565b60006020828403121561231d5761231c61218a565b5b600061232b848285016122f2565b91505092915050565b6000806040838503121561234b5761234a61218a565b5b6000612359858286016122f2565b925050602061236a858286016121b5565b9150509250929050565b600081519050919050565b600082825260208201905092915050565b60005b838110156123ae578082015181840152602081019050612393565b838111156123bd576000848401525b50505050565b6000601f19601f8301169050919050565b60006123df82612374565b6123e9818561237f565b93506123f9818560208601612390565b612402816123c3565b840191505092915050565b6000602082019050818103600083015261242781846123d4565b905092915050565b61243881612194565b82525050565b6000602082019050612453600083018461242f565b92915050565b612462816122c9565b82525050565b600060208201905061247d6000830184612459565b92915050565b7f4e487b7100000000000000000000000000000000000000000000000000000000600052602160045260246000fd5b7f5468652063757272656e742073746174757320646f6573206e6f7420616c6c6f60008201527f772074686973206f7065726174696f6e00000000000000000000000000000000602082015250565b600061250e60308361237f565b9150612519826124b2565b604082019050919050565b6000602082019050818103600083015261253d81612501565b9050919050565b7f4f7065726174696f6e206e6f7420616c6c6f776564203a20596f75206172652060008201527f6e6f742061207265676973746572656420766f74657200000000000000000000602082015250565b60006125a060368361237f565b91506125ab82612544565b604082019050919050565b600060208201905081810360008301526125cf81612593565b9050919050565b7f596f752063616e206f6e6c7920766f7465206f6e636500000000000000000000600082015250565b600061260c60168361237f565b9150612617826125d6565b602082019050919050565b6000602082019050818103600083015261263b816125ff565b9050919050565b7f54686520696420646f6573206e6f74206d6174636820746f20616e792070726f60008201527f706f73616c000000000000000000000000000000000000000000000000000000602082015250565b600061269e60258361237f565b91506126a982612642565b604082019050919050565b600060208201905081810360008301526126cd81612691565b9050919050565b7f4e487b7100000000000000000000000000000000000000000000000000000000600052603260045260246000fd5b7f4e487b7100000000000000000000000000000000000000000000000000000000600052601160045260246000fd5b600061273d82612194565b91507fffffffffffffffffffffffffffffffffffffffffffffffffffffffffffffffff820361276f5761276e612703565b5b600182019050919050565b600060408201905061278f6000830185612459565b61279c602083018461242f565b9392505050565b7f506c656173652061646420746865206465736372697074696f6e206f6620796f60008201527f75722070726f706f73616c000000000000000000000000000000000000000000602082015250565b60006127ff602b8361237f565b915061280a826127a3565b604082019050919050565b6000602082019050818103600083015261282e816127f2565b9050919050565b7f4d6178696d756d206e62206f662070726f706f73616c73207265616368656400600082015250565b600061286b601f8361237f565b915061287682612835565b602082019050919050565b6000602082019050818103600083015261289a8161285e565b9050919050565b7f596f752063616e6e6f7420726567697374657220746865206e756c6c2061646460008201527f7265737300000000000000000000000000000000000000000000000000000000602082015250565b60006128fd60248361237f565b9150612908826128a1565b604082019050919050565b6000602082019050818103600083015261292c816128f0565b9050919050565b7f4f7065726174696f6e206e6f7420616c6c6f776564203a20766f74652069732060008201527f616c72656164792074616c6c6965640000000000000000000000000000000000602082015250565b600061298f602f8361237f565b915061299a82612933565b604082019050919050565b600060208201905081810360008301526129be81612982565b9050919050565b7f546865726520617265206e6f20766f7465727320210000000000000000000000600082015250565b60006129fb60158361237f565b9150612a06826129c5565b602082019050919050565b60006020820190508181036000830152612a2a816129ee565b9050919050565b60068110612a4257612a41612483565b5b50565b6000819050612a5382612a31565b919050565b6000612a6382612a45565b9050919050565b612a7381612a58565b82525050565b6000604082019050612a8e6000830185612a6a565b612a9b6020830184612a6a565b9392505050565b7f546865726520617265206e6f2070726f706f73616c7320210000000000000000600082015250565b6000612ad860188361237f565b9150612ae382612aa2565b602082019050919050565b60006020820190508181036000830152612b0781612acb565b9050919050565b7f596f752063616e6e6f7420627269626520746869732061646472657373000000600082015250565b6000612b44601d8361237f565b9150612b4f82612b0e565b602082019050919050565b60006020820190508181036000830152612b7381612b37565b9050919050565b7f596f752063616e206f6e6c7920627269626520616e206164647265737320776860008201527f69636820686173206e6f7420766f746564207965740000000000000000000000602082015250565b6000612bd660358361237f565b9150612be182612b7a565b604082019050919050565b60006020820190508181036000830152612c0581612bc9565b9050919050565b7f596f7572206272696265206973206e6f7420656e6f7567680000000000000000600082015250565b6000612c4260188361237f565b9150612c4d82612c0c565b602082019050919050565b60006020820190508181036000830152612c7181612c35565b9050919050565b600081905092915050565b50565b6000612c93600083612c78565b9150612c9e82612c83565b600082019050919050565b6000612cb482612c86565b9150819050919050565b7f4272696265206661696c65642021000000000000000000000000000000000000600082015250565b6000612cf4600e8361237f565b9150612cff82612cbe565b602082019050919050565b60006020820190508181036000830152612d2381612ce7565b9050919050565b7f546865206164647265737320676976656e20686173206e6f7420766f7465642e600082015250565b6000612d6060208361237f565b9150612d6b82612d2a565b602082019050919050565b60006020820190508181036000830152612d8f81612d53565b9050919050565b7f4f776e61626c653a206e6577206f776e657220697320746865207a65726f206160008201527f6464726573730000000000000000000000000000000000000000000000000000602082015250565b6000612df260268361237f565b9150612dfd82612d96565b604082019050919050565b60006020820190508181036000830152612e2181612de5565b9050919050565b7f4f776e61626c653a2063616c6c6572206973206e6f7420746865206f776e6572600082015250565b6000612e5e60208361237f565b9150612e6982612e28565b602082019050919050565b60006020820190508181036000830152612e8d81612e51565b9050919050565b7f4e487b7100000000000000000000000000000000000000000000000000000000600052603160045260246000fd5b7f4e487b7100000000000000000000000000000000000000000000000000000000600052602260045260246000fd5b60006002820490506001821680612f0a57607f821691505b602082108103612f1d57612f1c612ec3565b5b50919050565b6000612f2e82612194565b9150612f3983612194565b9250827fffffffffffffffffffffffffffffffffffffffffffffffffffffffffffffffff03821115612f6e57612f6d612703565b5b828201905092915050565b6000612f8482612194565b9150612f8f83612194565b925082821015612fa257612fa1612703565b5b82820390509291505056fea2646970667358221220c90ece6c06b86fc55df004155084ca72dce7335bd60c93f3609ac78c5eacc2ad64736f6c634300080e0033",
  "immutableReferences": {},
  "source": "// SPDX-License-Identifier: GPL-3.0\n\npragma solidity >=0.8.13;\n\nimport \"../node_modules/@openzeppelin/contracts/access/Ownable.sol\";\nimport \"../node_modules/@openzeppelin/contracts/utils/Strings.sol\";\n\n\n/**\n * @title A Voting smart contract\n * @author Maxence Guillemain d'Echon\n * @notice You can use this contract to generate voting sessions\n**/\ncontract VotingOld is Ownable {\n\n    /** STRUCTS & ENUMS **/\n\n    struct Voter {\n        bool isRegistered;\n        \n        /**\n         * Replaces 'bool hasVoted'\n         * In order to handle ties - for which the voting session is re-openned.\n        **/ \n        uint votesNb;\n        uint votedProposalId;\n\n        /**\n         * Added to handle bribes (i.e. a Voter buying the vote of an another Voter)\n         * Any value different from 0 indicates that the Voter is willing to sell her vote at the price of {bribe} Wei\n         * The bribe can be defined in {ProposalsRegistrationStarted} phase using the {defineBribe()} function.\n         * The bribe can be sent in {VotingSessionStarted} phase using the {bribe()} function. \n         * A Voter cannot be brided if she has already voted. Once bribed, the Voter cannot vote anymore. \n        **/\n        uint bribe; \n    }\n\n    struct Proposal {\n        string description;\n        uint voteCount;\n    }\n\n    enum WorkflowStatus {\n        RegisteringVoters,\n        ProposalsRegistrationStarted,\n        ProposalsRegistrationEnded,\n        VotingSessionStarted,\n        VotingSessionEnded,\n        VotesTallied\n    }\n\n    /** STATE VARIABLES **/\n\n    WorkflowStatus private status;\n    uint private winningProposalId;\n    uint private totalVotesCount;\n    mapping (address => Voter) private voters;\n    Proposal[] private proposals;\n    uint private MAXPROPOSALS_NB; /* To counter Gas Limit DoS */\n    bool private isAtLeastOneVoter;\n\n    /**\n     * To handle ties.\n     * If there are many more Voters than Proposals, ties are very unlikely to happen.\n     * Here ties are handled by starting a new voting session between the tie Proposals only.\n     * Thus, the WorkflowStatus is rewinded to VotingSessionStarted.\n    **/\n    uint[] private winningProposalIds;\n    uint private votingSessionsNb;\n    Proposal[] private winningProposals;\n    bool private isWinnerFound;\n\n    /** EVENTS **/\n\n    event VoterRegistered(address voterAddress); \n    event WorkflowStatusChange(WorkflowStatus previousStatus, WorkflowStatus nextStatus);\n    event ProposalRegistered(uint proposalId);\n    event Voted(address voter, uint proposalId);\n    event Tie();\n\n    /** DEFAULT FUNCTIONS **/\n    /**\n     * @notice Initializes the contract.\n    **/\n    constructor() Ownable() {\n        status = WorkflowStatus.RegisteringVoters;\n        votingSessionsNb = 1;\n        MAXPROPOSALS_NB = 100;\n    }\n\n    /**\n     * @notice Initializes the contract.\n    **/\n    receive() external payable {\n    }\n\n    /** MODIFIERS **/\n\n    modifier onlyStatus(WorkflowStatus _status)  {\n        require (status == _status, \"The current status does not allow this operation\");\n        _;\n    }\n\n    modifier onlyRegisteredVoters() {\n        require (voters[msg.sender].isRegistered, \"Operation not allowed : You are not a registered voter\");\n        _;\n    }\n\n    /** FUNCTIONS **/\n\n    /**\n     * @notice During any phase (except {VotesTallied}), allows the owner to switch to the next phase.\n     * If the status is {VotingSessionEnded}, the votes are tallied.\n     * Then, the status is switched to {VotesTallied}, excepted if they is a tie, in which case, the status is\n     * rewinded to VotingSessionStarted, and a new voting session is started with only the ties Proposals.\n    **/\n    function nextPhase() external onlyOwner {\n        require (status != WorkflowStatus.VotesTallied, \"Operation not allowed : vote is already tallied\");\n\n        if (status == WorkflowStatus.RegisteringVoters) {\n            require (isAtLeastOneVoter, \"There are no voters !\");\n            status = WorkflowStatus.ProposalsRegistrationStarted;\n            emit WorkflowStatusChange(WorkflowStatus.RegisteringVoters, status);\n        }\n        else if (status == WorkflowStatus.ProposalsRegistrationStarted) {\n            require (proposals.length != 0, \"There are no proposals !\");\n            status = WorkflowStatus.ProposalsRegistrationEnded;\n            emit WorkflowStatusChange(WorkflowStatus.ProposalsRegistrationStarted, status);\n        }\n        else if (status == WorkflowStatus.ProposalsRegistrationEnded) {\n            status = WorkflowStatus.VotingSessionStarted;\n            emit WorkflowStatusChange(WorkflowStatus.ProposalsRegistrationEnded, status);\n        }\n        else if (status == WorkflowStatus.VotingSessionStarted) {\n            status = WorkflowStatus.VotingSessionEnded;\n            emit WorkflowStatusChange(WorkflowStatus.VotingSessionStarted, status);\n        }\n        else if (status == WorkflowStatus.VotingSessionEnded) {\n            _tallyHandleTie();\n            if (isWinnerFound) { \n                status = WorkflowStatus.VotesTallied;\n                emit WorkflowStatusChange(WorkflowStatus.VotingSessionEnded, status);\n            }\n            else { // Rewind the status to start a new Voting session \n                status = WorkflowStatus.VotingSessionStarted;\n                emit WorkflowStatusChange(WorkflowStatus.VotingSessionEnded, status);\n                emit Tie();\n            }\n        }\n    }\n\n    /**\n     * @notice During the {RegisteringVoters} phase, allows the Owner to register a Voter.\n     * @param _addr the address of the Voter to register.\n    **/\n    function registerVoter(address _addr) external onlyOwner onlyStatus(WorkflowStatus.RegisteringVoters) {\n        require (_addr != address(0), \"You cannot register the null address\");\n\n        voters[_addr] = Voter(true, 0, 0, 0);\n        if (!isAtLeastOneVoter)\n            isAtLeastOneVoter = true;\n\n        emit VoterRegistered(_addr);\n    }\n\n    /**\n     * @notice During the {ProposalsRegistrationStarted} phase, allows a registered Voter to register a Proposal.\n     * @param _description the description of the proposal to register. \n    **/\n    function registerProposal(string calldata _description) external onlyStatus(WorkflowStatus.ProposalsRegistrationStarted) onlyRegisteredVoters {\n        require (bytes(_description).length != 0, \"Please add the description of your proposal\");\n        uint _id = proposals.length; \n        require (_id < MAXPROPOSALS_NB, \"Maximum nb of proposals reached\");  /* To counter Gas Limit DoS */\n        \n        proposals.push(Proposal(_description, 0)); \n\n        emit ProposalRegistered(_id);\n    }\n\n    /**\n     * @notice During the {ProposalsRegistrationStarted} phase, allows a registered Voter to sets the minimum \n     * bribe value that she requests to sell her vote.\n     * @param _value the minimum bribe value requested to sell the vote.\n    **/\n    function defineBribe(uint _value) external onlyStatus(WorkflowStatus.ProposalsRegistrationStarted) onlyRegisteredVoters {\n        voters[msg.sender].bribe = _value;\n    }\n\n    /**\n     * @notice During the {VotingSessionStarted} phase, allows a registered Voter to vote for any registered Proposal.\n     * Proposals are identified by a unique _id.\n     * @param _id the id of the proposal to vote for.\n    **/\n    function vote(uint _id) external onlyStatus(WorkflowStatus.VotingSessionStarted) onlyRegisteredVoters {\n        require (voters[msg.sender].votesNb < votingSessionsNb, \"You can only vote once\");\n        require (_id < proposals.length, \"The id does not match to any proposal\");\n\n        proposals[_id].voteCount++;\n        voters[msg.sender].votesNb++;\n        voters[msg.sender].votedProposalId = _id;\n\n        emit Voted(msg.sender, _id);\n    }\n\n    /**\n     * @notice During the {VotingSessionStarted} phase, allows a registered Voter to send a bribe \n     * to another registered Voter.\n     * @param _addr the address of the Voter to bribe.\n     * @param _id the id of the proposal to vote for.\n    **/\n    function bribe(address _addr, uint _id) external payable onlyStatus(WorkflowStatus.VotingSessionStarted) onlyRegisteredVoters {\n        require (voters[_addr].bribe != 0, \"You cannot bribe this address\");\n        require (voters[_addr].votesNb < votingSessionsNb, \"You can only bribe an address which has not voted yet\");\n        require (voters[_addr].bribe <= msg.value, \"Your bribe is not enough\");\n        require (_id < proposals.length, \"The id does not match to any proposal\");\n\n        /** To prevent reentrency attacks, the voteCount is updated before sending the bribe. */\n        proposals[_id].voteCount++;\n        voters[_addr].votesNb++;\n        voters[_addr].votedProposalId = _id;\n\n        (bool success, ) = _addr.call{value:msg.value, gas: 25000}(\"\");\n        require (success, \"Bribe failed !\");\n\n        emit Voted(_addr, _id);\n    }\n\n    /**\n     * @dev Internal function to tally the votes, handling ties.\n     * Also counts the total number of votes and stores it in {totalVotesCount}.\n    **/\n    function _tallyHandleTie() internal {\n        uint _maxCount;\n        uint _tmpTotalVotesCount;\n\n        // Finds the Proposal(s) with the greatest vote count, and stores them and their _ids in winningProposals and winningProposalIds\n        for (uint _id=0; _id<proposals.length; _id++) {\n            if (proposals[_id].voteCount >= _maxCount) {\n                // If the winning proposals have less votes than the currently watched proposal, remove them from the winning list \n                if (proposals[_id].voteCount > _maxCount) {\n                    while (winningProposalIds.length != 0)\n                        winningProposalIds.pop();\n                    while (winningProposals.length != 0)\n                        winningProposals.pop();\n                }\n                winningProposalIds.push(_id);\n                winningProposals.push(proposals[_id]);\n                _maxCount = proposals[_id].voteCount;\n            }\n            _tmpTotalVotesCount += proposals[_id].voteCount;\n        }\n        totalVotesCount = _tmpTotalVotesCount;\n\n        if (winningProposalIds.length == 1) { \n            // There is no Tie, we set the Winner.\n            winningProposalId = winningProposalIds[0];\n            isWinnerFound = true;\n        }\n        else { \n            // There is a Tie, the list of Proposals is replaced by the list of the winning Proposals.\n            while (proposals.length != 0)\n                proposals.pop();\n            uint _winningProposalsNb = winningProposals.length;\n            while (proposals.length != _winningProposalsNb) {\n                proposals.push(winningProposals[winningProposals.length - 1]);\n                proposals[proposals.length - 1].voteCount = 0;\n                winningProposals.pop();\n            }\n            votingSessionsNb ++;\n        }\n\n    }\n\n    /**\n     * @notice During any phase, allows anybody to see current phase.\n     * @return status a string containing the status.\n    **/\n    function getStatus() external view returns(string memory) {\n        string memory str;\n        if (status == WorkflowStatus.RegisteringVoters) {\n            str = \"RegisteringVoters\";\n        }\n        else if (status == WorkflowStatus.ProposalsRegistrationStarted) {\n            str = \"ProposalsRegistrationStarted\";\n        }\n        else if (status == WorkflowStatus.ProposalsRegistrationEnded) {\n            str = \"ProposalsRegistrationEnded\";\n        }\n        else if (status == WorkflowStatus.VotingSessionStarted) {\n            str = \"VotingSessionStarted\";\n        }\n        else if (status == WorkflowStatus.VotingSessionEnded) {\n            str = \"VotingSessionEnded\";\n        }\n        else if (status == WorkflowStatus.VotesTallied) {\n            str = \"VotesTallied\";\n        }\n        return str;\n    }\n\n    /**\n     * @notice During the {VotingSessionStarted} phase and after, allows a registered Voter to see the vote  \n     * of another registered Voter, giving only her address.\n     * @param _addr the address to get the vote of.\n     * @return _id the id of the voted proposal.\n    **/\n    function getVote(address _addr) external view onlyRegisteredVoters returns(uint) {\n        require (voters[_addr].votesNb >= votingSessionsNb, \"The address given has not voted.\");\n        return voters[_addr].votedProposalId;\n    }\n\n    /**\n     * @notice During the {VotesTallied} phase, allows anybody to get the winning Proposal id.\n     * @return winningProposalId the id of the winning proposal.\n    **/\n    function getWinner() external view onlyStatus(WorkflowStatus.VotesTallied) returns(uint) {\n        return winningProposalId;\n    }\n}",
  "sourcePath": "/home/crow/Dev/Alyra/VotingDApp/truffle/contracts/Voting_old.sol",
  "compiler": {
    "name": "solc",
    "version": "0.8.14+commit.80d49f37.Emscripten.clang"
  },
  "schemaVersion": "3.4.10",
  "updatedAt": "2022-11-22T14:43:27.133Z",
  "devdoc": {
    "author": "Maxence Guillemain d'Echon",
    "kind": "dev",
    "methods": {
      "bribe(address,uint256)": {
        "params": {
          "_addr": "the address of the Voter to bribe.",
          "_id": "the id of the proposal to vote for.*"
        }
      },
      "defineBribe(uint256)": {
        "params": {
          "_value": "the minimum bribe value requested to sell the vote.*"
        }
      },
      "getStatus()": {
        "returns": {
          "_0": "status a string containing the status.*"
        }
      },
      "getVote(address)": {
        "params": {
          "_addr": "the address to get the vote of."
        },
        "returns": {
          "_0": "_id the id of the voted proposal.*"
        }
      },
      "getWinner()": {
        "returns": {
          "_0": "winningProposalId the id of the winning proposal.*"
        }
      },
      "owner()": {
        "details": "Returns the address of the current owner."
      },
      "registerProposal(string)": {
        "params": {
          "_description": "the description of the proposal to register. *"
        }
      },
      "registerVoter(address)": {
        "params": {
          "_addr": "the address of the Voter to register.*"
        }
      },
      "renounceOwnership()": {
        "details": "Leaves the contract without owner. It will not be possible to call `onlyOwner` functions anymore. Can only be called by the current owner. NOTE: Renouncing ownership will leave the contract without an owner, thereby removing any functionality that is only available to the owner."
      },
      "transferOwnership(address)": {
        "details": "Transfers ownership of the contract to a new account (`newOwner`). Can only be called by the current owner."
      },
      "vote(uint256)": {
        "params": {
          "_id": "the id of the proposal to vote for.*"
        }
      }
    },
    "title": "A Voting smart contract",
    "version": 1
  },
  "userdoc": {
    "events": {
      "VoterRegistered(address)": {
        "notice": "EVENTS *"
      }
    },
    "kind": "user",
    "methods": {
      "bribe(address,uint256)": {
        "notice": "During the {VotingSessionStarted} phase, allows a registered Voter to send a bribe  to another registered Voter."
      },
      "constructor": {
        "notice": "Initializes the contract.*"
      },
      "defineBribe(uint256)": {
        "notice": "During the {ProposalsRegistrationStarted} phase, allows a registered Voter to sets the minimum  bribe value that she requests to sell her vote."
      },
      "getStatus()": {
        "notice": "During any phase, allows anybody to see current phase."
      },
      "getVote(address)": {
        "notice": "During the {VotingSessionStarted} phase and after, allows a registered Voter to see the vote   of another registered Voter, giving only her address."
      },
      "getWinner()": {
        "notice": "During the {VotesTallied} phase, allows anybody to get the winning Proposal id."
      },
      "nextPhase()": {
        "notice": "During any phase (except {VotesTallied}), allows the owner to switch to the next phase. If the status is {VotingSessionEnded}, the votes are tallied. Then, the status is switched to {VotesTallied}, excepted if they is a tie, in which case, the status is rewinded to VotingSessionStarted, and a new voting session is started with only the ties Proposals.*"
      },
      "registerProposal(string)": {
        "notice": "During the {ProposalsRegistrationStarted} phase, allows a registered Voter to register a Proposal."
      },
      "registerVoter(address)": {
        "notice": "During the {RegisteringVoters} phase, allows the Owner to register a Voter."
      },
      "vote(uint256)": {
        "notice": "During the {VotingSessionStarted} phase, allows a registered Voter to vote for any registered Proposal. Proposals are identified by a unique _id."
      }
    },
    "notice": "You can use this contract to generate voting sessions*",
    "version": 1
  }
}